{
  "abi": [
    {
      "inputs": [],
      "name": "UMBRAL_PARAMETER_U_SIGN",
      "outputs": [
        {
          "internalType": "uint8",
          "name": "",
          "type": "uint8"
        }
      ],
      "stateMutability": "view",
      "type": "function"
    },
    {
      "inputs": [],
      "name": "UMBRAL_PARAMETER_U_XCOORD",
      "outputs": [
        {
          "internalType": "uint256",
          "name": "",
          "type": "uint256"
        }
      ],
      "stateMutability": "view",
      "type": "function"
    },
    {
      "inputs": [],
      "name": "UMBRAL_PARAMETER_U_YCOORD",
      "outputs": [
        {
          "internalType": "uint256",
          "name": "",
          "type": "uint256"
        }
      ],
      "stateMutability": "view",
      "type": "function"
    },
    {
      "inputs": [
        {
          "internalType": "bytes",
          "name": "_capsuleBytes",
          "type": "bytes"
        },
        {
          "internalType": "bytes",
          "name": "_cFragBytes",
          "type": "bytes"
        },
        {
          "internalType": "bytes",
          "name": "_precomputedBytes",
          "type": "bytes"
        }
      ],
      "name": "validateCFrag",
      "outputs": [
        {
          "internalType": "bool",
          "name": "",
          "type": "bool"
        }
      ],
      "stateMutability": "pure",
      "type": "function"
    }
  ],
  "bytecode": "611b65610026600b82828239805160001a60731461001957fe5b30600052607381538281f3fe73000000000000000000000000000000000000000030146080604052600436106100565760003560e01c8063055a80e71461005b5780634b4b4b1214610075578063c5f1f5ca1461007d578063e650faa71461009b575b600080fd5b610063610263565b60408051918252519081900360200190f35b610063610287565b6100856102ab565b6040805160ff9092168252519081900360200190f35b61024f600480360360608110156100b157600080fd5b8101906020810181356401000000008111156100cc57600080fd5b8201836020820111156100de57600080fd5b8035906020019184600183028401116401000000008311171561010057600080fd5b91908080601f016020809104026020016040519081016040528093929190818152602001838380828437600092019190915250929594936020810193503591505064010000000081111561015357600080fd5b82018360208201111561016557600080fd5b8035906020019184600183028401116401000000008311171561018757600080fd5b91908080601f01602080910402602001604051908101604052809392919081815260200183838082843760009201919091525092959493602081019350359150506401000000008111156101da57600080fd5b8201836020820111156101ec57600080fd5b8035906020019184600183028401116401000000008311171561020e57600080fd5b91908080601f0160208091040260200160405190810160405280939291908181526020018383808284376000920191909152509295506102b0945050505050565b604080519115158252519081900360200190f35b7f03c98795773ff1c241fc0b1cced85e80f8366581dda5c9452175ebd41385fa1f81565b7f7880ed56962d7c0ae44d6f14bb53b5fe64b31ea44a41d0316f3a598778f0f93681565b600281565b6000806102bc85610a46565b905060006102c985610a9d565b905060006102d685610b25565b905060006102e48484610d03565b8451805160209091015184519293506102fc92610fa3565b6103375760405162461bcd60e51b81526004018080602001828103825260468152602001806119d46046913960600191505060405180910390fd5b61034982602001518360400151610fcd565b61039a576040805162461bcd60e51b815260206004820181905260248201527f506f696e74207a45206973206e6f7420612076616c696420454320706f696e74604482015290519081900360640190fd5b6103ac82608001518360a00151610fcd565b6103e75760405162461bcd60e51b8152600401808060200182810382526022815260200180611aa86022913960400191505060405180910390fd5b6000610458604051806040016040528085602001518152602001856040015181525061045360405180604001604052808860800151600001516020015181526020018760c001518152506040518060400160405280886080015181526020018860a00151815250611032565b61115a565b90508061046d57600095505050505050610a3f565b602080860151805191015160e0850151610488929190610fa3565b6104c35760405162461bcd60e51b8152600401808060200182810382526046815260200180611a1a6046913960600191505060405180910390fd5b6104d7836101000151846101200151610fcd565b610528576040805162461bcd60e51b815260206004820181905260248201527f506f696e74207a56206973206e6f7420612076616c696420454320706f696e74604482015290519081900360640190fd5b6105538560200151602001518460e001518660800151608001518661010001518761012001516111c2565b61058e5760405162461bcd60e51b81526004018080602001828103825260228152602001806119486022913960400191505060405180910390fd5b60208085015180519101516101408501516105aa929190610fa3565b6105e55760405162461bcd60e51b8152600401808060200182810382526048815260200180611a606048913960600191505060405180910390fd5b6105f9836101600151846101800151610fcd565b6106345760405162461bcd60e51b8152600401808060200182810382526022815260200180611aeb6022913960400191505060405180910390fd5b610658846020015160200151846101400151848661016001518761018001516111c2565b6106935760405162461bcd60e51b8152600401808060200182810382526023815260200180611b0d6023913960400191505060405180910390fd5b608084015160209081015180519101516101a08501516106b4929190610fa3565b6106ef5760405162461bcd60e51b815260040180806020018281038252604881526020018061196a6048913960600191505060405180910390fd5b61075e604051806040016040528085610100015181526020018561012001518152506104536040518060400160405280886080015160200151602001518152602001876101a0015181525060405180604001604052808861016001518152602001886101800151815250611032565b90508061077357600095505050505050610a3f565b610787836101c00151846101e00151610fcd565b6107c25760405162461bcd60e51b8152600401808060200182810382526021815260200180611aca6021913960400191505060405180910390fd5b6108217f03c98795773ff1c241fc0b1cced85e80f8366581dda5c9452175ebd41385fa1f7f7880ed56962d7c0ae44d6f14bb53b5fe64b31ea44a41d0316f3a598778f0f936866080015160800151866101c00151876101e001516111c2565b61085c5760405162461bcd60e51b81526004018080602001828103825260228152602001806119b26022913960400191505060405180910390fd5b608084015160400151805160209091015161020085015161087e929190610fa3565b6108b95760405162461bcd60e51b81526004018080602001828103825260488152602001806119006048913960600191505060405180910390fd5b6108cd836102200151846102400151610fcd565b6109085760405162461bcd60e51b81526004018080602001828103825260228152602001806118966022913960400191505060405180910390fd5b61093084608001516040015160200151846102000151848661022001518761024001516111c2565b61096b5760405162461bcd60e51b8152600401808060200182810382526023815260200180611b0d6023913960400191505060405180910390fd5b608084015160600151805160209091015161026085015161098d929190610fa3565b6109c85760405162461bcd60e51b81526004018080602001828103825260488152602001806118b86048913960600191505060405180910390fd5b610a376040518060400160405280856101c001518152602001856101e00151815250610453604051806040016040528088608001516060015160200151815260200187610260015181525060405180604001604052808861022001518152602001886102400151815250611032565b955050505050505b9392505050565b610a4e6116d4565b8151606214610a5c57600080fd5b6000610a678361128e565b9050610a77818360000151611294565b9050610a87818360200151611294565b9050610a92816112af565b604083015250919050565b610aa5611701565b8151610167811015610ab657600080fd5b6000610ac18461128e565b9050610ad1818460000151611294565b9050610ae1818460200151611294565b9050610aec816112af565b6040840152606083015160209190910190610b08908290611294565b9050610b188160821984016112b3565b6080840152509092915050565b610b2d611747565b81516102b914610b3c57600080fd5b6000610b478361128e565b905080610b53816112af565b8352602001610b61816112af565b60208085019190915201610b74816112af565b6040840152602001610b85816112af565b6060840152602001610b96816112af565b6080840152602001610ba7816112af565b60a0840152602001610bb8816112af565b60c0840152602001610bc9816112af565b60e0840152602001610bda816112af565b610100840152602001610bec816112af565b610120840152602001610bfe816112af565b610140840152602001610c10816112af565b610160840152602001610c22816112af565b610180840152602001610c34816112af565b6101a0840152602001610c46816112af565b6101c0840152602001610c58816112af565b6101e0840152602001610c6a816112af565b610200840152602001610c7c816112af565b610220840152602001610c8e816112af565b610240840152602001610ca0816112af565b610260840152602001610cb2816112af565b610280840152602001610cc4816112af565b60601c6102a0840152601401610cd9816112af565b6001600160d81b0319166102c08401526005016102b982018114610cfc57600080fd5b5050919050565b81518051602091820151835180519084015160808601805151805190870151604080516001600160f81b031960f8998a1b8116828c0152602182019890985295881b871660418701526042860194909452951b909316606283015260638083019490945280518083039094018452608382019052838601518051908501518686015180519087015194518701518051908801518751600099899896979596949560a3019182918a01908083835b60208310610dcf5780518252601f199092019160209182019101610db0565b51815160209384036101000a600019018019909216911617905260f89a8b1b6001600160f81b031990811692909401918252600182019990995296891b8216602188015250602286019490945250941b166042820152604380820193909352604080518083039094018452606382018152608088015190810151805190840151606083015180519086015160c0909401518751979950899850600160f91b977f03c98795773ff1c241fc0b1cced85e80f8366581dda5c9452175ebd41385fa1f97949693959294929391926083909201918291908b01908083835b60208310610ec95780518252601f199092019160209182019101610eaa565b6001836020036101000a038019825116818451168082178552505050505050905001886001600160f81b03191681526001018781526020018660ff1660f81b81526001018581526020018460ff1660f81b815260010183815260200182805190602001908083835b60208310610f505780518252601f199092019160209182019101610f31565b6001836020036101000a0380198251168184511680821785525050505050509050019850505050505050505060405160208183030381529060405290506000610f98826113b9565b925050505b92915050565b600060018216600119850160ff1614808015610fc45750610fc48484610fcd565b95945050505050565b60006401000003d0198084101580610fe55750808310155b15610ff4576000915050610f9d565b60008180610ffe57fe5b84850990506000828061100d57fe5b6007848061101757fe5b88868061102057fe5b8a8b0909089190911495945050505050565b61103a61180b565b82516020808501518451918501516401000003d019939290818414801561106057508083145b156110955761108960405180606001604052808681526020018581526020016001815250611598565b95505050505050610f9d565b6000858061109f57fe5b84870383089050600086806110b057fe5b86880385089050600087806110c157fe5b8283099050600088806110d057fe5b8383099050600089806110df57fe5b838a09905089806110ec57fe5b8a806110f457fe5b838c806110fd57fe5b84600209088b038b8061110c57fe5b878809088b52898061111a57fe5b8a8061112257fe5b838a098b038b8061112f57fe5b8c8061113757fe5b8e518e03850888090860208c015250505060408801525094979650505050505050565b604081015160009080611171576000915050610f9d565b6401000003d0196000818384098551909150828061118b57fe5b87518390091480156111b85750602085015182806111a557fe5b83806111ad57fe5b858409602089015109145b9695505050505050565b600070014551231950b75fc4402da1732fc9bebe1981600181601b898316018a858c8b0960001b60405160008152602001604052604051808560001b81526020018460ff1681526020018381526020018281526020019450505050506020604051602081039080840390855afa158015611240573d6000803e3d6000fd5b505060408051601f1981015160208281018a90528284018990528351808403850181526060909301909352815191909201206001600160a01b03918216911614935050505095945050505050565b60200190565b8151600183015160009190911a825260209091015260210190565b5190565b6112bb611829565b60e48210156112c957600080fd5b6112d7838260000151611294565b92506112e7838260200151611294565b92506112f7838260400151611294565b9250611307838260600151611294565b9250611312836112af565b608082015260408051818152606081018252602094909401939060208201818036833750505060a0820181905261134c908490604061168d565b925060e4821115610f9d5760e319820167ffffffffffffffff8111801561137257600080fd5b506040519080825280601f01601f19166020018201604052801561139d576020820181803683370190505b5060c0820181905280516113b291859161168d565b5092915050565b6000806000806e3430b9b42fba37afb1bab93b32b13760891b6000801b866040516020018084815260200183815260200182805190602001908083835b602083106114155780518252601f1990920191602091820191016113f6565b6001836020036101000a03801982511681845116808217855250505050505090500193505050506040516020818303038152906040529050600081604051602001808360ff1660f81b815260010182805190602001908083835b6020831061148e5780518252601f19909201916020918201910161146f565b6001836020036101000a0380198251168184511680821785525050505050509050019250505060405160208183030381529060405280519060200120600182604051602001808360ff1660f81b815260010182805190602001908083835b6020831061150b5780518252601f1990920191602091820191016114ec565b51815160209384036101000a60001901801990921691161790526040805192909401828103601f19018352909352805192019190912094975093955070014551231950b75fc4402da1732fc9bec0935070014551231950b75fc4402da1732fc9bebf199250600091508290508387099050818061158457fe5b85820860010196505050505050505b919050565b6115a061180b565b6040820151806115b05750611593565b82516401000003d0199060008260208701516002099050600083806115d157fe5b8283099050600084806115e057fe5b8483099050600085806115ef57fe5b86806115f757fe5b86870960030990506000868061160957fe5b878061161157fe5b846401000003d21909888061162257fe5b84850908808a529050868061163357fe5b878061163b57fe5b888061164357fe5b86870963800001e9600160ff1b0309888061165a57fe5b898061166257fe5b848b03870885090860208a0152868061167757fe5b88860960408a0152509698975050505050505050565b60006020601f830104846020850160005b838110156116ba5760208102838101519083015260010161169e565b505050506000835160200184015281840190509392505050565b60405180606001604052806116e761187e565b81526020016116f461187e565b8152602001600081525090565b6040518060a0016040528061171461187e565b815260200161172161187e565b81526000602082015260400161173561187e565b8152602001611742611829565b905290565b604051806102e0016040528060008152602001600081526020016000815260200160008152602001600081526020016000815260200160008152602001600081526020016000815260200160008152602001600081526020016000815260200160008152602001600081526020016000815260200160008152602001600081526020016000815260200160008152602001600081526020016000801916815260200160006001600160a01b0316815260200160006001600160d81b03191681525090565b60405180606001604052806003906020820280368337509192915050565b6040518060e0016040528061183c61187e565b815260200161184961187e565b815260200161185661187e565b815260200161186361187e565b81526020016000815260200160608152602001606081525090565b60408051808201909152600080825260208201529056fe506f696e7420682a5531206973206e6f7420612076616c696420454320706f696e74507265636f6d7075746564205920636f6f7264696e617465206f6620553220646f65736e277420636f72726573706f6e6420746f20636f6d7072657373656420553220706f696e74507265636f6d7075746564205920636f6f7264696e617465206f6620553120646f65736e277420636f72726573706f6e6420746f20636f6d7072657373656420553120706f696e74507265636f6d7075746564207a2a562076616c756520697320696e636f7272656374507265636f6d7075746564205920636f6f7264696e617465206f6620563220646f65736e277420636f72726573706f6e6420746f20636f6d7072657373656420563220706f696e74507265636f6d7075746564207a2a552076616c756520697320696e636f7272656374507265636f6d7075746564205920636f6f7264696e617465206f66204520646f65736e277420636f72726573706f6e6420746f20636f6d70726573736564204520706f696e74507265636f6d7075746564205920636f6f7264696e617465206f66205620646f65736e277420636f72726573706f6e6420746f20636f6d70726573736564205620706f696e74507265636f6d7075746564205920636f6f7264696e617465206f6620563120646f65736e277420636f72726573706f6e6420746f20636f6d7072657373656420563120706f696e74506f696e7420682a4531206973206e6f7420612076616c696420454320706f696e74506f696e74207a2a55206973206e6f7420612076616c696420454320706f696e74506f696e7420682a5631206973206e6f7420612076616c696420454320706f696e74507265636f6d707574656420682a56312076616c756520697320696e636f7272656374a264697066735822122076193439ee0055e05ddf9bade7c4e8fef3253f3d86751105920a21f4a719c33264736f6c63430007060033",
  "bytecodeSha1": "d367692e946672550110035f31fd3d22142fbb83",
  "compiler": {
    "evm_version": "istanbul",
    "optimizer": {
      "enabled": true,
      "runs": 200
    },
    "version": "0.7.6+commit.7338295f"
  },
  "contractName": "ReEncryptionValidator",
  "language": "Solidity",
  "natspec": {
    "kind": "dev",
    "methods": {
      "validateCFrag(bytes,bytes,bytes)": {
        "notice": "Check correctness of re-encryption",
        "params": {
          "_cFragBytes": "Capsule frag",
          "_capsuleBytes": "Capsule",
          "_precomputedBytes": "Additional precomputed data"
        }
      }
    },
    "notice": "Validates re-encryption correctness.",
    "version": 1
  },
  "opcodes": "PUSH20 0x0 ADDRESS EQ PUSH1 0x80 PUSH1 0x40 MSTORE PUSH1 0x4 CALLDATASIZE LT PUSH2 0x56 JUMPI PUSH1 0x0 CALLDATALOAD PUSH1 0xE0 SHR DUP1 PUSH4 0x55A80E7 EQ PUSH2 0x5B JUMPI DUP1 PUSH4 0x4B4B4B12 EQ PUSH2 0x75 JUMPI DUP1 PUSH4 0xC5F1F5CA EQ PUSH2 0x7D JUMPI DUP1 PUSH4 0xE650FAA7 EQ PUSH2 0x9B JUMPI JUMPDEST PUSH1 0x0 DUP1 REVERT JUMPDEST PUSH2 0x63 PUSH2 0x263 JUMP JUMPDEST PUSH1 0x40 DUP1 MLOAD SWAP2 DUP3 MSTORE MLOAD SWAP1 DUP2 SWAP1 SUB PUSH1 0x20 ADD SWAP1 RETURN JUMPDEST PUSH2 0x63 PUSH2 0x287 JUMP JUMPDEST PUSH2 0x85 PUSH2 0x2AB JUMP JUMPDEST PUSH1 0x40 DUP1 MLOAD PUSH1 0xFF SWAP1 SWAP3 AND DUP3 MSTORE MLOAD SWAP1 DUP2 SWAP1 SUB PUSH1 0x20 ADD SWAP1 RETURN JUMPDEST PUSH2 0x24F PUSH1 0x4 DUP1 CALLDATASIZE SUB PUSH1 0x60 DUP2 LT ISZERO PUSH2 0xB1 JUMPI PUSH1 0x0 DUP1 REVERT JUMPDEST DUP2 ADD SWAP1 PUSH1 0x20 DUP2 ADD DUP2 CALLDATALOAD PUSH5 0x100000000 DUP2 GT ISZERO PUSH2 0xCC JUMPI PUSH1 0x0 DUP1 REVERT JUMPDEST DUP3 ADD DUP4 PUSH1 0x20 DUP3 ADD GT ISZERO PUSH2 0xDE JUMPI PUSH1 0x0 DUP1 REVERT JUMPDEST DUP1 CALLDATALOAD SWAP1 PUSH1 0x20 ADD SWAP2 DUP5 PUSH1 0x1 DUP4 MUL DUP5 ADD GT PUSH5 0x100000000 DUP4 GT OR ISZERO PUSH2 0x100 JUMPI PUSH1 0x0 DUP1 REVERT JUMPDEST SWAP2 SWAP1 DUP1 DUP1 PUSH1 0x1F ADD PUSH1 0x20 DUP1 SWAP2 DIV MUL PUSH1 0x20 ADD PUSH1 0x40 MLOAD SWAP1 DUP2 ADD PUSH1 0x40 MSTORE DUP1 SWAP4 SWAP3 SWAP2 SWAP1 DUP2 DUP2 MSTORE PUSH1 0x20 ADD DUP4 DUP4 DUP1 DUP3 DUP5 CALLDATACOPY PUSH1 0x0 SWAP3 ADD SWAP2 SWAP1 SWAP2 MSTORE POP SWAP3 SWAP6 SWAP5 SWAP4 PUSH1 0x20 DUP2 ADD SWAP4 POP CALLDATALOAD SWAP2 POP POP PUSH5 0x100000000 DUP2 GT ISZERO PUSH2 0x153 JUMPI PUSH1 0x0 DUP1 REVERT JUMPDEST DUP3 ADD DUP4 PUSH1 0x20 DUP3 ADD GT ISZERO PUSH2 0x165 JUMPI PUSH1 0x0 DUP1 REVERT JUMPDEST DUP1 CALLDATALOAD SWAP1 PUSH1 0x20 ADD SWAP2 DUP5 PUSH1 0x1 DUP4 MUL DUP5 ADD GT PUSH5 0x100000000 DUP4 GT OR ISZERO PUSH2 0x187 JUMPI PUSH1 0x0 DUP1 REVERT JUMPDEST SWAP2 SWAP1 DUP1 DUP1 PUSH1 0x1F ADD PUSH1 0x20 DUP1 SWAP2 DIV MUL PUSH1 0x20 ADD PUSH1 0x40 MLOAD SWAP1 DUP2 ADD PUSH1 0x40 MSTORE DUP1 SWAP4 SWAP3 SWAP2 SWAP1 DUP2 DUP2 MSTORE PUSH1 0x20 ADD DUP4 DUP4 DUP1 DUP3 DUP5 CALLDATACOPY PUSH1 0x0 SWAP3 ADD SWAP2 SWAP1 SWAP2 MSTORE POP SWAP3 SWAP6 SWAP5 SWAP4 PUSH1 0x20 DUP2 ADD SWAP4 POP CALLDATALOAD SWAP2 POP POP PUSH5 0x100000000 DUP2 GT ISZERO PUSH2 0x1DA JUMPI PUSH1 0x0 DUP1 REVERT JUMPDEST DUP3 ADD DUP4 PUSH1 0x20 DUP3 ADD GT ISZERO PUSH2 0x1EC JUMPI PUSH1 0x0 DUP1 REVERT JUMPDEST DUP1 CALLDATALOAD SWAP1 PUSH1 0x20 ADD SWAP2 DUP5 PUSH1 0x1 DUP4 MUL DUP5 ADD GT PUSH5 0x100000000 DUP4 GT OR ISZERO PUSH2 0x20E JUMPI PUSH1 0x0 DUP1 REVERT JUMPDEST SWAP2 SWAP1 DUP1 DUP1 PUSH1 0x1F ADD PUSH1 0x20 DUP1 SWAP2 DIV MUL PUSH1 0x20 ADD PUSH1 0x40 MLOAD SWAP1 DUP2 ADD PUSH1 0x40 MSTORE DUP1 SWAP4 SWAP3 SWAP2 SWAP1 DUP2 DUP2 MSTORE PUSH1 0x20 ADD DUP4 DUP4 DUP1 DUP3 DUP5 CALLDATACOPY PUSH1 0x0 SWAP3 ADD SWAP2 SWAP1 SWAP2 MSTORE POP SWAP3 SWAP6 POP PUSH2 0x2B0 SWAP5 POP POP POP POP POP JUMP JUMPDEST PUSH1 0x40 DUP1 MLOAD SWAP2 ISZERO ISZERO DUP3 MSTORE MLOAD SWAP1 DUP2 SWAP1 SUB PUSH1 0x20 ADD SWAP1 RETURN JUMPDEST PUSH32 0x3C98795773FF1C241FC0B1CCED85E80F8366581DDA5C9452175EBD41385FA1F DUP2 JUMP JUMPDEST PUSH32 0x7880ED56962D7C0AE44D6F14BB53B5FE64B31EA44A41D0316F3A598778F0F936 DUP2 JUMP JUMPDEST PUSH1 0x2 DUP2 JUMP JUMPDEST PUSH1 0x0 DUP1 PUSH2 0x2BC DUP6 PUSH2 0xA46 JUMP JUMPDEST SWAP1 POP PUSH1 0x0 PUSH2 0x2C9 DUP6 PUSH2 0xA9D JUMP JUMPDEST SWAP1 POP PUSH1 0x0 PUSH2 0x2D6 DUP6 PUSH2 0xB25 JUMP JUMPDEST SWAP1 POP PUSH1 0x0 PUSH2 0x2E4 DUP5 DUP5 PUSH2 0xD03 JUMP JUMPDEST DUP5 MLOAD DUP1 MLOAD PUSH1 0x20 SWAP1 SWAP2 ADD MLOAD DUP5 MLOAD SWAP3 SWAP4 POP PUSH2 0x2FC SWAP3 PUSH2 0xFA3 JUMP JUMPDEST PUSH2 0x337 JUMPI PUSH1 0x40 MLOAD PUSH3 0x461BCD PUSH1 0xE5 SHL DUP2 MSTORE PUSH1 0x4 ADD DUP1 DUP1 PUSH1 0x20 ADD DUP3 DUP2 SUB DUP3 MSTORE PUSH1 0x46 DUP2 MSTORE PUSH1 0x20 ADD DUP1 PUSH2 0x19D4 PUSH1 0x46 SWAP2 CODECOPY PUSH1 0x60 ADD SWAP2 POP POP PUSH1 0x40 MLOAD DUP1 SWAP2 SUB SWAP1 REVERT JUMPDEST PUSH2 0x349 DUP3 PUSH1 0x20 ADD MLOAD DUP4 PUSH1 0x40 ADD MLOAD PUSH2 0xFCD JUMP JUMPDEST PUSH2 0x39A JUMPI PUSH1 0x40 DUP1 MLOAD PUSH3 0x461BCD PUSH1 0xE5 SHL DUP2 MSTORE PUSH1 0x20 PUSH1 0x4 DUP3 ADD DUP2 SWAP1 MSTORE PUSH1 0x24 DUP3 ADD MSTORE PUSH32 0x506F696E74207A45206973206E6F7420612076616C696420454320706F696E74 PUSH1 0x44 DUP3 ADD MSTORE SWAP1 MLOAD SWAP1 DUP2 SWAP1 SUB PUSH1 0x64 ADD SWAP1 REVERT JUMPDEST PUSH2 0x3AC DUP3 PUSH1 0x80 ADD MLOAD DUP4 PUSH1 0xA0 ADD MLOAD PUSH2 0xFCD JUMP JUMPDEST PUSH2 0x3E7 JUMPI PUSH1 0x40 MLOAD PUSH3 0x461BCD PUSH1 0xE5 SHL DUP2 MSTORE PUSH1 0x4 ADD DUP1 DUP1 PUSH1 0x20 ADD DUP3 DUP2 SUB DUP3 MSTORE PUSH1 0x22 DUP2 MSTORE PUSH1 0x20 ADD DUP1 PUSH2 0x1AA8 PUSH1 0x22 SWAP2 CODECOPY PUSH1 0x40 ADD SWAP2 POP POP PUSH1 0x40 MLOAD DUP1 SWAP2 SUB SWAP1 REVERT JUMPDEST PUSH1 0x0 PUSH2 0x458 PUSH1 0x40 MLOAD DUP1 PUSH1 0x40 ADD PUSH1 0x40 MSTORE DUP1 DUP6 PUSH1 0x20 ADD MLOAD DUP2 MSTORE PUSH1 0x20 ADD DUP6 PUSH1 0x40 ADD MLOAD DUP2 MSTORE POP PUSH2 0x453 PUSH1 0x40 MLOAD DUP1 PUSH1 0x40 ADD PUSH1 0x40 MSTORE DUP1 DUP9 PUSH1 0x80 ADD MLOAD PUSH1 0x0 ADD MLOAD PUSH1 0x20 ADD MLOAD DUP2 MSTORE PUSH1 0x20 ADD DUP8 PUSH1 0xC0 ADD MLOAD DUP2 MSTORE POP PUSH1 0x40 MLOAD DUP1 PUSH1 0x40 ADD PUSH1 0x40 MSTORE DUP1 DUP9 PUSH1 0x80 ADD MLOAD DUP2 MSTORE PUSH1 0x20 ADD DUP9 PUSH1 0xA0 ADD MLOAD DUP2 MSTORE POP PUSH2 0x1032 JUMP JUMPDEST PUSH2 0x115A JUMP JUMPDEST SWAP1 POP DUP1 PUSH2 0x46D JUMPI PUSH1 0x0 SWAP6 POP POP POP POP POP POP PUSH2 0xA3F JUMP JUMPDEST PUSH1 0x20 DUP1 DUP7 ADD MLOAD DUP1 MLOAD SWAP2 ADD MLOAD PUSH1 0xE0 DUP6 ADD MLOAD PUSH2 0x488 SWAP3 SWAP2 SWAP1 PUSH2 0xFA3 JUMP JUMPDEST PUSH2 0x4C3 JUMPI PUSH1 0x40 MLOAD PUSH3 0x461BCD PUSH1 0xE5 SHL DUP2 MSTORE PUSH1 0x4 ADD DUP1 DUP1 PUSH1 0x20 ADD DUP3 DUP2 SUB DUP3 MSTORE PUSH1 0x46 DUP2 MSTORE PUSH1 0x20 ADD DUP1 PUSH2 0x1A1A PUSH1 0x46 SWAP2 CODECOPY PUSH1 0x60 ADD SWAP2 POP POP PUSH1 0x40 MLOAD DUP1 SWAP2 SUB SWAP1 REVERT JUMPDEST PUSH2 0x4D7 DUP4 PUSH2 0x100 ADD MLOAD DUP5 PUSH2 0x120 ADD MLOAD PUSH2 0xFCD JUMP JUMPDEST PUSH2 0x528 JUMPI PUSH1 0x40 DUP1 MLOAD PUSH3 0x461BCD PUSH1 0xE5 SHL DUP2 MSTORE PUSH1 0x20 PUSH1 0x4 DUP3 ADD DUP2 SWAP1 MSTORE PUSH1 0x24 DUP3 ADD MSTORE PUSH32 0x506F696E74207A56206973206E6F7420612076616C696420454320706F696E74 PUSH1 0x44 DUP3 ADD MSTORE SWAP1 MLOAD SWAP1 DUP2 SWAP1 SUB PUSH1 0x64 ADD SWAP1 REVERT JUMPDEST PUSH2 0x553 DUP6 PUSH1 0x20 ADD MLOAD PUSH1 0x20 ADD MLOAD DUP5 PUSH1 0xE0 ADD MLOAD DUP7 PUSH1 0x80 ADD MLOAD PUSH1 0x80 ADD MLOAD DUP7 PUSH2 0x100 ADD MLOAD DUP8 PUSH2 0x120 ADD MLOAD PUSH2 0x11C2 JUMP JUMPDEST PUSH2 0x58E JUMPI PUSH1 0x40 MLOAD PUSH3 0x461BCD PUSH1 0xE5 SHL DUP2 MSTORE PUSH1 0x4 ADD DUP1 DUP1 PUSH1 0x20 ADD DUP3 DUP2 SUB DUP3 MSTORE PUSH1 0x22 DUP2 MSTORE PUSH1 0x20 ADD DUP1 PUSH2 0x1948 PUSH1 0x22 SWAP2 CODECOPY PUSH1 0x40 ADD SWAP2 POP POP PUSH1 0x40 MLOAD DUP1 SWAP2 SUB SWAP1 REVERT JUMPDEST PUSH1 0x20 DUP1 DUP6 ADD MLOAD DUP1 MLOAD SWAP2 ADD MLOAD PUSH2 0x140 DUP6 ADD MLOAD PUSH2 0x5AA SWAP3 SWAP2 SWAP1 PUSH2 0xFA3 JUMP JUMPDEST PUSH2 0x5E5 JUMPI PUSH1 0x40 MLOAD PUSH3 0x461BCD PUSH1 0xE5 SHL DUP2 MSTORE PUSH1 0x4 ADD DUP1 DUP1 PUSH1 0x20 ADD DUP3 DUP2 SUB DUP3 MSTORE PUSH1 0x48 DUP2 MSTORE PUSH1 0x20 ADD DUP1 PUSH2 0x1A60 PUSH1 0x48 SWAP2 CODECOPY PUSH1 0x60 ADD SWAP2 POP POP PUSH1 0x40 MLOAD DUP1 SWAP2 SUB SWAP1 REVERT JUMPDEST PUSH2 0x5F9 DUP4 PUSH2 0x160 ADD MLOAD DUP5 PUSH2 0x180 ADD MLOAD PUSH2 0xFCD JUMP JUMPDEST PUSH2 0x634 JUMPI PUSH1 0x40 MLOAD PUSH3 0x461BCD PUSH1 0xE5 SHL DUP2 MSTORE PUSH1 0x4 ADD DUP1 DUP1 PUSH1 0x20 ADD DUP3 DUP2 SUB DUP3 MSTORE PUSH1 0x22 DUP2 MSTORE PUSH1 0x20 ADD DUP1 PUSH2 0x1AEB PUSH1 0x22 SWAP2 CODECOPY PUSH1 0x40 ADD SWAP2 POP POP PUSH1 0x40 MLOAD DUP1 SWAP2 SUB SWAP1 REVERT JUMPDEST PUSH2 0x658 DUP5 PUSH1 0x20 ADD MLOAD PUSH1 0x20 ADD MLOAD DUP5 PUSH2 0x140 ADD MLOAD DUP5 DUP7 PUSH2 0x160 ADD MLOAD DUP8 PUSH2 0x180 ADD MLOAD PUSH2 0x11C2 JUMP JUMPDEST PUSH2 0x693 JUMPI PUSH1 0x40 MLOAD PUSH3 0x461BCD PUSH1 0xE5 SHL DUP2 MSTORE PUSH1 0x4 ADD DUP1 DUP1 PUSH1 0x20 ADD DUP3 DUP2 SUB DUP3 MSTORE PUSH1 0x23 DUP2 MSTORE PUSH1 0x20 ADD DUP1 PUSH2 0x1B0D PUSH1 0x23 SWAP2 CODECOPY PUSH1 0x40 ADD SWAP2 POP POP PUSH1 0x40 MLOAD DUP1 SWAP2 SUB SWAP1 REVERT JUMPDEST PUSH1 0x80 DUP5 ADD MLOAD PUSH1 0x20 SWAP1 DUP2 ADD MLOAD DUP1 MLOAD SWAP2 ADD MLOAD PUSH2 0x1A0 DUP6 ADD MLOAD PUSH2 0x6B4 SWAP3 SWAP2 SWAP1 PUSH2 0xFA3 JUMP JUMPDEST PUSH2 0x6EF JUMPI PUSH1 0x40 MLOAD PUSH3 0x461BCD PUSH1 0xE5 SHL DUP2 MSTORE PUSH1 0x4 ADD DUP1 DUP1 PUSH1 0x20 ADD DUP3 DUP2 SUB DUP3 MSTORE PUSH1 0x48 DUP2 MSTORE PUSH1 0x20 ADD DUP1 PUSH2 0x196A PUSH1 0x48 SWAP2 CODECOPY PUSH1 0x60 ADD SWAP2 POP POP PUSH1 0x40 MLOAD DUP1 SWAP2 SUB SWAP1 REVERT JUMPDEST PUSH2 0x75E PUSH1 0x40 MLOAD DUP1 PUSH1 0x40 ADD PUSH1 0x40 MSTORE DUP1 DUP6 PUSH2 0x100 ADD MLOAD DUP2 MSTORE PUSH1 0x20 ADD DUP6 PUSH2 0x120 ADD MLOAD DUP2 MSTORE POP PUSH2 0x453 PUSH1 0x40 MLOAD DUP1 PUSH1 0x40 ADD PUSH1 0x40 MSTORE DUP1 DUP9 PUSH1 0x80 ADD MLOAD PUSH1 0x20 ADD MLOAD PUSH1 0x20 ADD MLOAD DUP2 MSTORE PUSH1 0x20 ADD DUP8 PUSH2 0x1A0 ADD MLOAD DUP2 MSTORE POP PUSH1 0x40 MLOAD DUP1 PUSH1 0x40 ADD PUSH1 0x40 MSTORE DUP1 DUP9 PUSH2 0x160 ADD MLOAD DUP2 MSTORE PUSH1 0x20 ADD DUP9 PUSH2 0x180 ADD MLOAD DUP2 MSTORE POP PUSH2 0x1032 JUMP JUMPDEST SWAP1 POP DUP1 PUSH2 0x773 JUMPI PUSH1 0x0 SWAP6 POP POP POP POP POP POP PUSH2 0xA3F JUMP JUMPDEST PUSH2 0x787 DUP4 PUSH2 0x1C0 ADD MLOAD DUP5 PUSH2 0x1E0 ADD MLOAD PUSH2 0xFCD JUMP JUMPDEST PUSH2 0x7C2 JUMPI PUSH1 0x40 MLOAD PUSH3 0x461BCD PUSH1 0xE5 SHL DUP2 MSTORE PUSH1 0x4 ADD DUP1 DUP1 PUSH1 0x20 ADD DUP3 DUP2 SUB DUP3 MSTORE PUSH1 0x21 DUP2 MSTORE PUSH1 0x20 ADD DUP1 PUSH2 0x1ACA PUSH1 0x21 SWAP2 CODECOPY PUSH1 0x40 ADD SWAP2 POP POP PUSH1 0x40 MLOAD DUP1 SWAP2 SUB SWAP1 REVERT JUMPDEST PUSH2 0x821 PUSH32 0x3C98795773FF1C241FC0B1CCED85E80F8366581DDA5C9452175EBD41385FA1F PUSH32 0x7880ED56962D7C0AE44D6F14BB53B5FE64B31EA44A41D0316F3A598778F0F936 DUP7 PUSH1 0x80 ADD MLOAD PUSH1 0x80 ADD MLOAD DUP7 PUSH2 0x1C0 ADD MLOAD DUP8 PUSH2 0x1E0 ADD MLOAD PUSH2 0x11C2 JUMP JUMPDEST PUSH2 0x85C JUMPI PUSH1 0x40 MLOAD PUSH3 0x461BCD PUSH1 0xE5 SHL DUP2 MSTORE PUSH1 0x4 ADD DUP1 DUP1 PUSH1 0x20 ADD DUP3 DUP2 SUB DUP3 MSTORE PUSH1 0x22 DUP2 MSTORE PUSH1 0x20 ADD DUP1 PUSH2 0x19B2 PUSH1 0x22 SWAP2 CODECOPY PUSH1 0x40 ADD SWAP2 POP POP PUSH1 0x40 MLOAD DUP1 SWAP2 SUB SWAP1 REVERT JUMPDEST PUSH1 0x80 DUP5 ADD MLOAD PUSH1 0x40 ADD MLOAD DUP1 MLOAD PUSH1 0x20 SWAP1 SWAP2 ADD MLOAD PUSH2 0x200 DUP6 ADD MLOAD PUSH2 0x87E SWAP3 SWAP2 SWAP1 PUSH2 0xFA3 JUMP JUMPDEST PUSH2 0x8B9 JUMPI PUSH1 0x40 MLOAD PUSH3 0x461BCD PUSH1 0xE5 SHL DUP2 MSTORE PUSH1 0x4 ADD DUP1 DUP1 PUSH1 0x20 ADD DUP3 DUP2 SUB DUP3 MSTORE PUSH1 0x48 DUP2 MSTORE PUSH1 0x20 ADD DUP1 PUSH2 0x1900 PUSH1 0x48 SWAP2 CODECOPY PUSH1 0x60 ADD SWAP2 POP POP PUSH1 0x40 MLOAD DUP1 SWAP2 SUB SWAP1 REVERT JUMPDEST PUSH2 0x8CD DUP4 PUSH2 0x220 ADD MLOAD DUP5 PUSH2 0x240 ADD MLOAD PUSH2 0xFCD JUMP JUMPDEST PUSH2 0x908 JUMPI PUSH1 0x40 MLOAD PUSH3 0x461BCD PUSH1 0xE5 SHL DUP2 MSTORE PUSH1 0x4 ADD DUP1 DUP1 PUSH1 0x20 ADD DUP3 DUP2 SUB DUP3 MSTORE PUSH1 0x22 DUP2 MSTORE PUSH1 0x20 ADD DUP1 PUSH2 0x1896 PUSH1 0x22 SWAP2 CODECOPY PUSH1 0x40 ADD SWAP2 POP POP PUSH1 0x40 MLOAD DUP1 SWAP2 SUB SWAP1 REVERT JUMPDEST PUSH2 0x930 DUP5 PUSH1 0x80 ADD MLOAD PUSH1 0x40 ADD MLOAD PUSH1 0x20 ADD MLOAD DUP5 PUSH2 0x200 ADD MLOAD DUP5 DUP7 PUSH2 0x220 ADD MLOAD DUP8 PUSH2 0x240 ADD MLOAD PUSH2 0x11C2 JUMP JUMPDEST PUSH2 0x96B JUMPI PUSH1 0x40 MLOAD PUSH3 0x461BCD PUSH1 0xE5 SHL DUP2 MSTORE PUSH1 0x4 ADD DUP1 DUP1 PUSH1 0x20 ADD DUP3 DUP2 SUB DUP3 MSTORE PUSH1 0x23 DUP2 MSTORE PUSH1 0x20 ADD DUP1 PUSH2 0x1B0D PUSH1 0x23 SWAP2 CODECOPY PUSH1 0x40 ADD SWAP2 POP POP PUSH1 0x40 MLOAD DUP1 SWAP2 SUB SWAP1 REVERT JUMPDEST PUSH1 0x80 DUP5 ADD MLOAD PUSH1 0x60 ADD MLOAD DUP1 MLOAD PUSH1 0x20 SWAP1 SWAP2 ADD MLOAD PUSH2 0x260 DUP6 ADD MLOAD PUSH2 0x98D SWAP3 SWAP2 SWAP1 PUSH2 0xFA3 JUMP JUMPDEST PUSH2 0x9C8 JUMPI PUSH1 0x40 MLOAD PUSH3 0x461BCD PUSH1 0xE5 SHL DUP2 MSTORE PUSH1 0x4 ADD DUP1 DUP1 PUSH1 0x20 ADD DUP3 DUP2 SUB DUP3 MSTORE PUSH1 0x48 DUP2 MSTORE PUSH1 0x20 ADD DUP1 PUSH2 0x18B8 PUSH1 0x48 SWAP2 CODECOPY PUSH1 0x60 ADD SWAP2 POP POP PUSH1 0x40 MLOAD DUP1 SWAP2 SUB SWAP1 REVERT JUMPDEST PUSH2 0xA37 PUSH1 0x40 MLOAD DUP1 PUSH1 0x40 ADD PUSH1 0x40 MSTORE DUP1 DUP6 PUSH2 0x1C0 ADD MLOAD DUP2 MSTORE PUSH1 0x20 ADD DUP6 PUSH2 0x1E0 ADD MLOAD DUP2 MSTORE POP PUSH2 0x453 PUSH1 0x40 MLOAD DUP1 PUSH1 0x40 ADD PUSH1 0x40 MSTORE DUP1 DUP9 PUSH1 0x80 ADD MLOAD PUSH1 0x60 ADD MLOAD PUSH1 0x20 ADD MLOAD DUP2 MSTORE PUSH1 0x20 ADD DUP8 PUSH2 0x260 ADD MLOAD DUP2 MSTORE POP PUSH1 0x40 MLOAD DUP1 PUSH1 0x40 ADD PUSH1 0x40 MSTORE DUP1 DUP9 PUSH2 0x220 ADD MLOAD DUP2 MSTORE PUSH1 0x20 ADD DUP9 PUSH2 0x240 ADD MLOAD DUP2 MSTORE POP PUSH2 0x1032 JUMP JUMPDEST SWAP6 POP POP POP POP POP POP JUMPDEST SWAP4 SWAP3 POP POP POP JUMP JUMPDEST PUSH2 0xA4E PUSH2 0x16D4 JUMP JUMPDEST DUP2 MLOAD PUSH1 0x62 EQ PUSH2 0xA5C JUMPI PUSH1 0x0 DUP1 REVERT JUMPDEST PUSH1 0x0 PUSH2 0xA67 DUP4 PUSH2 0x128E JUMP JUMPDEST SWAP1 POP PUSH2 0xA77 DUP2 DUP4 PUSH1 0x0 ADD MLOAD PUSH2 0x1294 JUMP JUMPDEST SWAP1 POP PUSH2 0xA87 DUP2 DUP4 PUSH1 0x20 ADD MLOAD PUSH2 0x1294 JUMP JUMPDEST SWAP1 POP PUSH2 0xA92 DUP2 PUSH2 0x12AF JUMP JUMPDEST PUSH1 0x40 DUP4 ADD MSTORE POP SWAP2 SWAP1 POP JUMP JUMPDEST PUSH2 0xAA5 PUSH2 0x1701 JUMP JUMPDEST DUP2 MLOAD PUSH2 0x167 DUP2 LT ISZERO PUSH2 0xAB6 JUMPI PUSH1 0x0 DUP1 REVERT JUMPDEST PUSH1 0x0 PUSH2 0xAC1 DUP5 PUSH2 0x128E JUMP JUMPDEST SWAP1 POP PUSH2 0xAD1 DUP2 DUP5 PUSH1 0x0 ADD MLOAD PUSH2 0x1294 JUMP JUMPDEST SWAP1 POP PUSH2 0xAE1 DUP2 DUP5 PUSH1 0x20 ADD MLOAD PUSH2 0x1294 JUMP JUMPDEST SWAP1 POP PUSH2 0xAEC DUP2 PUSH2 0x12AF JUMP JUMPDEST PUSH1 0x40 DUP5 ADD MSTORE PUSH1 0x60 DUP4 ADD MLOAD PUSH1 0x20 SWAP2 SWAP1 SWAP2 ADD SWAP1 PUSH2 0xB08 SWAP1 DUP3 SWAP1 PUSH2 0x1294 JUMP JUMPDEST SWAP1 POP PUSH2 0xB18 DUP2 PUSH1 0x82 NOT DUP5 ADD PUSH2 0x12B3 JUMP JUMPDEST PUSH1 0x80 DUP5 ADD MSTORE POP SWAP1 SWAP3 SWAP2 POP POP JUMP JUMPDEST PUSH2 0xB2D PUSH2 0x1747 JUMP JUMPDEST DUP2 MLOAD PUSH2 0x2B9 EQ PUSH2 0xB3C JUMPI PUSH1 0x0 DUP1 REVERT JUMPDEST PUSH1 0x0 PUSH2 0xB47 DUP4 PUSH2 0x128E JUMP JUMPDEST SWAP1 POP DUP1 PUSH2 0xB53 DUP2 PUSH2 0x12AF JUMP JUMPDEST DUP4 MSTORE PUSH1 0x20 ADD PUSH2 0xB61 DUP2 PUSH2 0x12AF JUMP JUMPDEST PUSH1 0x20 DUP1 DUP6 ADD SWAP2 SWAP1 SWAP2 MSTORE ADD PUSH2 0xB74 DUP2 PUSH2 0x12AF JUMP JUMPDEST PUSH1 0x40 DUP5 ADD MSTORE PUSH1 0x20 ADD PUSH2 0xB85 DUP2 PUSH2 0x12AF JUMP JUMPDEST PUSH1 0x60 DUP5 ADD MSTORE PUSH1 0x20 ADD PUSH2 0xB96 DUP2 PUSH2 0x12AF JUMP JUMPDEST PUSH1 0x80 DUP5 ADD MSTORE PUSH1 0x20 ADD PUSH2 0xBA7 DUP2 PUSH2 0x12AF JUMP JUMPDEST PUSH1 0xA0 DUP5 ADD MSTORE PUSH1 0x20 ADD PUSH2 0xBB8 DUP2 PUSH2 0x12AF JUMP JUMPDEST PUSH1 0xC0 DUP5 ADD MSTORE PUSH1 0x20 ADD PUSH2 0xBC9 DUP2 PUSH2 0x12AF JUMP JUMPDEST PUSH1 0xE0 DUP5 ADD MSTORE PUSH1 0x20 ADD PUSH2 0xBDA DUP2 PUSH2 0x12AF JUMP JUMPDEST PUSH2 0x100 DUP5 ADD MSTORE PUSH1 0x20 ADD PUSH2 0xBEC DUP2 PUSH2 0x12AF JUMP JUMPDEST PUSH2 0x120 DUP5 ADD MSTORE PUSH1 0x20 ADD PUSH2 0xBFE DUP2 PUSH2 0x12AF JUMP JUMPDEST PUSH2 0x140 DUP5 ADD MSTORE PUSH1 0x20 ADD PUSH2 0xC10 DUP2 PUSH2 0x12AF JUMP JUMPDEST PUSH2 0x160 DUP5 ADD MSTORE PUSH1 0x20 ADD PUSH2 0xC22 DUP2 PUSH2 0x12AF JUMP JUMPDEST PUSH2 0x180 DUP5 ADD MSTORE PUSH1 0x20 ADD PUSH2 0xC34 DUP2 PUSH2 0x12AF JUMP JUMPDEST PUSH2 0x1A0 DUP5 ADD MSTORE PUSH1 0x20 ADD PUSH2 0xC46 DUP2 PUSH2 0x12AF JUMP JUMPDEST PUSH2 0x1C0 DUP5 ADD MSTORE PUSH1 0x20 ADD PUSH2 0xC58 DUP2 PUSH2 0x12AF JUMP JUMPDEST PUSH2 0x1E0 DUP5 ADD MSTORE PUSH1 0x20 ADD PUSH2 0xC6A DUP2 PUSH2 0x12AF JUMP JUMPDEST PUSH2 0x200 DUP5 ADD MSTORE PUSH1 0x20 ADD PUSH2 0xC7C DUP2 PUSH2 0x12AF JUMP JUMPDEST PUSH2 0x220 DUP5 ADD MSTORE PUSH1 0x20 ADD PUSH2 0xC8E DUP2 PUSH2 0x12AF JUMP JUMPDEST PUSH2 0x240 DUP5 ADD MSTORE PUSH1 0x20 ADD PUSH2 0xCA0 DUP2 PUSH2 0x12AF JUMP JUMPDEST PUSH2 0x260 DUP5 ADD MSTORE PUSH1 0x20 ADD PUSH2 0xCB2 DUP2 PUSH2 0x12AF JUMP JUMPDEST PUSH2 0x280 DUP5 ADD MSTORE PUSH1 0x20 ADD PUSH2 0xCC4 DUP2 PUSH2 0x12AF JUMP JUMPDEST PUSH1 0x60 SHR PUSH2 0x2A0 DUP5 ADD MSTORE PUSH1 0x14 ADD PUSH2 0xCD9 DUP2 PUSH2 0x12AF JUMP JUMPDEST PUSH1 0x1 PUSH1 0x1 PUSH1 0xD8 SHL SUB NOT AND PUSH2 0x2C0 DUP5 ADD MSTORE PUSH1 0x5 ADD PUSH2 0x2B9 DUP3 ADD DUP2 EQ PUSH2 0xCFC JUMPI PUSH1 0x0 DUP1 REVERT JUMPDEST POP POP SWAP2 SWAP1 POP JUMP JUMPDEST DUP2 MLOAD DUP1 MLOAD PUSH1 0x20 SWAP2 DUP3 ADD MLOAD DUP4 MLOAD DUP1 MLOAD SWAP1 DUP5 ADD MLOAD PUSH1 0x80 DUP7 ADD DUP1 MLOAD MLOAD DUP1 MLOAD SWAP1 DUP8 ADD MLOAD PUSH1 0x40 DUP1 MLOAD PUSH1 0x1 PUSH1 0x1 PUSH1 0xF8 SHL SUB NOT PUSH1 0xF8 SWAP10 DUP11 SHL DUP2 AND DUP3 DUP13 ADD MSTORE PUSH1 0x21 DUP3 ADD SWAP9 SWAP1 SWAP9 MSTORE SWAP6 DUP9 SHL DUP8 AND PUSH1 0x41 DUP8 ADD MSTORE PUSH1 0x42 DUP7 ADD SWAP5 SWAP1 SWAP5 MSTORE SWAP6 SHL SWAP1 SWAP4 AND PUSH1 0x62 DUP4 ADD MSTORE PUSH1 0x63 DUP1 DUP4 ADD SWAP5 SWAP1 SWAP5 MSTORE DUP1 MLOAD DUP1 DUP4 SUB SWAP1 SWAP5 ADD DUP5 MSTORE PUSH1 0x83 DUP3 ADD SWAP1 MSTORE DUP4 DUP7 ADD MLOAD DUP1 MLOAD SWAP1 DUP6 ADD MLOAD DUP7 DUP7 ADD MLOAD DUP1 MLOAD SWAP1 DUP8 ADD MLOAD SWAP5 MLOAD DUP8 ADD MLOAD DUP1 MLOAD SWAP1 DUP9 ADD MLOAD DUP8 MLOAD PUSH1 0x0 SWAP10 DUP10 SWAP9 SWAP7 SWAP8 SWAP6 SWAP7 SWAP5 SWAP6 PUSH1 0xA3 ADD SWAP2 DUP3 SWAP2 DUP11 ADD SWAP1 DUP1 DUP4 DUP4 JUMPDEST PUSH1 0x20 DUP4 LT PUSH2 0xDCF JUMPI DUP1 MLOAD DUP3 MSTORE PUSH1 0x1F NOT SWAP1 SWAP3 ADD SWAP2 PUSH1 0x20 SWAP2 DUP3 ADD SWAP2 ADD PUSH2 0xDB0 JUMP JUMPDEST MLOAD DUP2 MLOAD PUSH1 0x20 SWAP4 DUP5 SUB PUSH2 0x100 EXP PUSH1 0x0 NOT ADD DUP1 NOT SWAP1 SWAP3 AND SWAP2 AND OR SWAP1 MSTORE PUSH1 0xF8 SWAP11 DUP12 SHL PUSH1 0x1 PUSH1 0x1 PUSH1 0xF8 SHL SUB NOT SWAP1 DUP2 AND SWAP3 SWAP1 SWAP5 ADD SWAP2 DUP3 MSTORE PUSH1 0x1 DUP3 ADD SWAP10 SWAP1 SWAP10 MSTORE SWAP7 DUP10 SHL DUP3 AND PUSH1 0x21 DUP9 ADD MSTORE POP PUSH1 0x22 DUP7 ADD SWAP5 SWAP1 SWAP5 MSTORE POP SWAP5 SHL AND PUSH1 0x42 DUP3 ADD MSTORE PUSH1 0x43 DUP1 DUP3 ADD SWAP4 SWAP1 SWAP4 MSTORE PUSH1 0x40 DUP1 MLOAD DUP1 DUP4 SUB SWAP1 SWAP5 ADD DUP5 MSTORE PUSH1 0x63 DUP3 ADD DUP2 MSTORE PUSH1 0x80 DUP9 ADD MLOAD SWAP1 DUP2 ADD MLOAD DUP1 MLOAD SWAP1 DUP5 ADD MLOAD PUSH1 0x60 DUP4 ADD MLOAD DUP1 MLOAD SWAP1 DUP7 ADD MLOAD PUSH1 0xC0 SWAP1 SWAP5 ADD MLOAD DUP8 MLOAD SWAP8 SWAP10 POP DUP10 SWAP9 POP PUSH1 0x1 PUSH1 0xF9 SHL SWAP8 PUSH32 0x3C98795773FF1C241FC0B1CCED85E80F8366581DDA5C9452175EBD41385FA1F SWAP8 SWAP5 SWAP7 SWAP4 SWAP6 SWAP3 SWAP5 SWAP3 SWAP4 SWAP2 SWAP3 PUSH1 0x83 SWAP1 SWAP3 ADD SWAP2 DUP3 SWAP2 SWAP1 DUP12 ADD SWAP1 DUP1 DUP4 DUP4 JUMPDEST PUSH1 0x20 DUP4 LT PUSH2 0xEC9 JUMPI DUP1 MLOAD DUP3 MSTORE PUSH1 0x1F NOT SWAP1 SWAP3 ADD SWAP2 PUSH1 0x20 SWAP2 DUP3 ADD SWAP2 ADD PUSH2 0xEAA JUMP JUMPDEST PUSH1 0x1 DUP4 PUSH1 0x20 SUB PUSH2 0x100 EXP SUB DUP1 NOT DUP3 MLOAD AND DUP2 DUP5 MLOAD AND DUP1 DUP3 OR DUP6 MSTORE POP POP POP POP POP POP SWAP1 POP ADD DUP9 PUSH1 0x1 PUSH1 0x1 PUSH1 0xF8 SHL SUB NOT AND DUP2 MSTORE PUSH1 0x1 ADD DUP8 DUP2 MSTORE PUSH1 0x20 ADD DUP7 PUSH1 0xFF AND PUSH1 0xF8 SHL DUP2 MSTORE PUSH1 0x1 ADD DUP6 DUP2 MSTORE PUSH1 0x20 ADD DUP5 PUSH1 0xFF AND PUSH1 0xF8 SHL DUP2 MSTORE PUSH1 0x1 ADD DUP4 DUP2 MSTORE PUSH1 0x20 ADD DUP3 DUP1 MLOAD SWAP1 PUSH1 0x20 ADD SWAP1 DUP1 DUP4 DUP4 JUMPDEST PUSH1 0x20 DUP4 LT PUSH2 0xF50 JUMPI DUP1 MLOAD DUP3 MSTORE PUSH1 0x1F NOT SWAP1 SWAP3 ADD SWAP2 PUSH1 0x20 SWAP2 DUP3 ADD SWAP2 ADD PUSH2 0xF31 JUMP JUMPDEST PUSH1 0x1 DUP4 PUSH1 0x20 SUB PUSH2 0x100 EXP SUB DUP1 NOT DUP3 MLOAD AND DUP2 DUP5 MLOAD AND DUP1 DUP3 OR DUP6 MSTORE POP POP POP POP POP POP SWAP1 POP ADD SWAP9 POP POP POP POP POP POP POP POP POP PUSH1 0x40 MLOAD PUSH1 0x20 DUP2 DUP4 SUB SUB DUP2 MSTORE SWAP1 PUSH1 0x40 MSTORE SWAP1 POP PUSH1 0x0 PUSH2 0xF98 DUP3 PUSH2 0x13B9 JUMP JUMPDEST SWAP3 POP POP POP JUMPDEST SWAP3 SWAP2 POP POP JUMP JUMPDEST PUSH1 0x0 PUSH1 0x1 DUP3 AND PUSH1 0x1 NOT DUP6 ADD PUSH1 0xFF AND EQ DUP1 DUP1 ISZERO PUSH2 0xFC4 JUMPI POP PUSH2 0xFC4 DUP5 DUP5 PUSH2 0xFCD JUMP JUMPDEST SWAP6 SWAP5 POP POP POP POP POP JUMP JUMPDEST PUSH1 0x0 PUSH5 0x1000003D0 NOT DUP1 DUP5 LT ISZERO DUP1 PUSH2 0xFE5 JUMPI POP DUP1 DUP4 LT ISZERO JUMPDEST ISZERO PUSH2 0xFF4 JUMPI PUSH1 0x0 SWAP2 POP POP PUSH2 0xF9D JUMP JUMPDEST PUSH1 0x0 DUP2 DUP1 PUSH2 0xFFE JUMPI INVALID JUMPDEST DUP5 DUP6 MULMOD SWAP1 POP PUSH1 0x0 DUP3 DUP1 PUSH2 0x100D JUMPI INVALID JUMPDEST PUSH1 0x7 DUP5 DUP1 PUSH2 0x1017 JUMPI INVALID JUMPDEST DUP9 DUP7 DUP1 PUSH2 0x1020 JUMPI INVALID JUMPDEST DUP11 DUP12 MULMOD MULMOD ADDMOD SWAP2 SWAP1 SWAP2 EQ SWAP6 SWAP5 POP POP POP POP POP JUMP JUMPDEST PUSH2 0x103A PUSH2 0x180B JUMP JUMPDEST DUP3 MLOAD PUSH1 0x20 DUP1 DUP6 ADD MLOAD DUP5 MLOAD SWAP2 DUP6 ADD MLOAD PUSH5 0x1000003D0 NOT SWAP4 SWAP3 SWAP1 DUP2 DUP5 EQ DUP1 ISZERO PUSH2 0x1060 JUMPI POP DUP1 DUP4 EQ JUMPDEST ISZERO PUSH2 0x1095 JUMPI PUSH2 0x1089 PUSH1 0x40 MLOAD DUP1 PUSH1 0x60 ADD PUSH1 0x40 MSTORE DUP1 DUP7 DUP2 MSTORE PUSH1 0x20 ADD DUP6 DUP2 MSTORE PUSH1 0x20 ADD PUSH1 0x1 DUP2 MSTORE POP PUSH2 0x1598 JUMP JUMPDEST SWAP6 POP POP POP POP POP POP PUSH2 0xF9D JUMP JUMPDEST PUSH1 0x0 DUP6 DUP1 PUSH2 0x109F JUMPI INVALID JUMPDEST DUP5 DUP8 SUB DUP4 ADDMOD SWAP1 POP PUSH1 0x0 DUP7 DUP1 PUSH2 0x10B0 JUMPI INVALID JUMPDEST DUP7 DUP9 SUB DUP6 ADDMOD SWAP1 POP PUSH1 0x0 DUP8 DUP1 PUSH2 0x10C1 JUMPI INVALID JUMPDEST DUP3 DUP4 MULMOD SWAP1 POP PUSH1 0x0 DUP9 DUP1 PUSH2 0x10D0 JUMPI INVALID JUMPDEST DUP4 DUP4 MULMOD SWAP1 POP PUSH1 0x0 DUP10 DUP1 PUSH2 0x10DF JUMPI INVALID JUMPDEST DUP4 DUP11 MULMOD SWAP1 POP DUP10 DUP1 PUSH2 0x10EC JUMPI INVALID JUMPDEST DUP11 DUP1 PUSH2 0x10F4 JUMPI INVALID JUMPDEST DUP4 DUP13 DUP1 PUSH2 0x10FD JUMPI INVALID JUMPDEST DUP5 PUSH1 0x2 MULMOD ADDMOD DUP12 SUB DUP12 DUP1 PUSH2 0x110C JUMPI INVALID JUMPDEST DUP8 DUP9 MULMOD ADDMOD DUP12 MSTORE DUP10 DUP1 PUSH2 0x111A JUMPI INVALID JUMPDEST DUP11 DUP1 PUSH2 0x1122 JUMPI INVALID JUMPDEST DUP4 DUP11 MULMOD DUP12 SUB DUP12 DUP1 PUSH2 0x112F JUMPI INVALID JUMPDEST DUP13 DUP1 PUSH2 0x1137 JUMPI INVALID JUMPDEST DUP15 MLOAD DUP15 SUB DUP6 ADDMOD DUP9 MULMOD ADDMOD PUSH1 0x20 DUP13 ADD MSTORE POP POP POP PUSH1 0x40 DUP9 ADD MSTORE POP SWAP5 SWAP8 SWAP7 POP POP POP POP POP POP POP JUMP JUMPDEST PUSH1 0x40 DUP2 ADD MLOAD PUSH1 0x0 SWAP1 DUP1 PUSH2 0x1171 JUMPI PUSH1 0x0 SWAP2 POP POP PUSH2 0xF9D JUMP JUMPDEST PUSH5 0x1000003D0 NOT PUSH1 0x0 DUP2 DUP4 DUP5 MULMOD DUP6 MLOAD SWAP1 SWAP2 POP DUP3 DUP1 PUSH2 0x118B JUMPI INVALID JUMPDEST DUP8 MLOAD DUP4 SWAP1 MULMOD EQ DUP1 ISZERO PUSH2 0x11B8 JUMPI POP PUSH1 0x20 DUP6 ADD MLOAD DUP3 DUP1 PUSH2 0x11A5 JUMPI INVALID JUMPDEST DUP4 DUP1 PUSH2 0x11AD JUMPI INVALID JUMPDEST DUP6 DUP5 MULMOD PUSH1 0x20 DUP10 ADD MLOAD MULMOD EQ JUMPDEST SWAP7 SWAP6 POP POP POP POP POP POP JUMP JUMPDEST PUSH1 0x0 PUSH17 0x14551231950B75FC4402DA1732FC9BEBE NOT DUP2 PUSH1 0x1 DUP2 PUSH1 0x1B DUP10 DUP4 AND ADD DUP11 DUP6 DUP13 DUP12 MULMOD PUSH1 0x0 SHL PUSH1 0x40 MLOAD PUSH1 0x0 DUP2 MSTORE PUSH1 0x20 ADD PUSH1 0x40 MSTORE PUSH1 0x40 MLOAD DUP1 DUP6 PUSH1 0x0 SHL DUP2 MSTORE PUSH1 0x20 ADD DUP5 PUSH1 0xFF AND DUP2 MSTORE PUSH1 0x20 ADD DUP4 DUP2 MSTORE PUSH1 0x20 ADD DUP3 DUP2 MSTORE PUSH1 0x20 ADD SWAP5 POP POP POP POP POP PUSH1 0x20 PUSH1 0x40 MLOAD PUSH1 0x20 DUP2 SUB SWAP1 DUP1 DUP5 SUB SWAP1 DUP6 GAS STATICCALL ISZERO DUP1 ISZERO PUSH2 0x1240 JUMPI RETURNDATASIZE PUSH1 0x0 DUP1 RETURNDATACOPY RETURNDATASIZE PUSH1 0x0 REVERT JUMPDEST POP POP PUSH1 0x40 DUP1 MLOAD PUSH1 0x1F NOT DUP2 ADD MLOAD PUSH1 0x20 DUP3 DUP2 ADD DUP11 SWAP1 MSTORE DUP3 DUP5 ADD DUP10 SWAP1 MSTORE DUP4 MLOAD DUP1 DUP5 SUB DUP6 ADD DUP2 MSTORE PUSH1 0x60 SWAP1 SWAP4 ADD SWAP1 SWAP4 MSTORE DUP2 MLOAD SWAP2 SWAP1 SWAP3 ADD KECCAK256 PUSH1 0x1 PUSH1 0x1 PUSH1 0xA0 SHL SUB SWAP2 DUP3 AND SWAP2 AND EQ SWAP4 POP POP POP POP SWAP6 SWAP5 POP POP POP POP POP JUMP JUMPDEST PUSH1 0x20 ADD SWAP1 JUMP JUMPDEST DUP2 MLOAD PUSH1 0x1 DUP4 ADD MLOAD PUSH1 0x0 SWAP2 SWAP1 SWAP2 BYTE DUP3 MSTORE PUSH1 0x20 SWAP1 SWAP2 ADD MSTORE PUSH1 0x21 ADD SWAP1 JUMP JUMPDEST MLOAD SWAP1 JUMP JUMPDEST PUSH2 0x12BB PUSH2 0x1829 JUMP JUMPDEST PUSH1 0xE4 DUP3 LT ISZERO PUSH2 0x12C9 JUMPI PUSH1 0x0 DUP1 REVERT JUMPDEST PUSH2 0x12D7 DUP4 DUP3 PUSH1 0x0 ADD MLOAD PUSH2 0x1294 JUMP JUMPDEST SWAP3 POP PUSH2 0x12E7 DUP4 DUP3 PUSH1 0x20 ADD MLOAD PUSH2 0x1294 JUMP JUMPDEST SWAP3 POP PUSH2 0x12F7 DUP4 DUP3 PUSH1 0x40 ADD MLOAD PUSH2 0x1294 JUMP JUMPDEST SWAP3 POP PUSH2 0x1307 DUP4 DUP3 PUSH1 0x60 ADD MLOAD PUSH2 0x1294 JUMP JUMPDEST SWAP3 POP PUSH2 0x1312 DUP4 PUSH2 0x12AF JUMP JUMPDEST PUSH1 0x80 DUP3 ADD MSTORE PUSH1 0x40 DUP1 MLOAD DUP2 DUP2 MSTORE PUSH1 0x60 DUP2 ADD DUP3 MSTORE PUSH1 0x20 SWAP5 SWAP1 SWAP5 ADD SWAP4 SWAP1 PUSH1 0x20 DUP3 ADD DUP2 DUP1 CALLDATASIZE DUP4 CALLDATACOPY POP POP POP PUSH1 0xA0 DUP3 ADD DUP2 SWAP1 MSTORE PUSH2 0x134C SWAP1 DUP5 SWAP1 PUSH1 0x40 PUSH2 0x168D JUMP JUMPDEST SWAP3 POP PUSH1 0xE4 DUP3 GT ISZERO PUSH2 0xF9D JUMPI PUSH1 0xE3 NOT DUP3 ADD PUSH8 0xFFFFFFFFFFFFFFFF DUP2 GT DUP1 ISZERO PUSH2 0x1372 JUMPI PUSH1 0x0 DUP1 REVERT JUMPDEST POP PUSH1 0x40 MLOAD SWAP1 DUP1 DUP3 MSTORE DUP1 PUSH1 0x1F ADD PUSH1 0x1F NOT AND PUSH1 0x20 ADD DUP3 ADD PUSH1 0x40 MSTORE DUP1 ISZERO PUSH2 0x139D JUMPI PUSH1 0x20 DUP3 ADD DUP2 DUP1 CALLDATASIZE DUP4 CALLDATACOPY ADD SWAP1 POP JUMPDEST POP PUSH1 0xC0 DUP3 ADD DUP2 SWAP1 MSTORE DUP1 MLOAD PUSH2 0x13B2 SWAP2 DUP6 SWAP2 PUSH2 0x168D JUMP JUMPDEST POP SWAP3 SWAP2 POP POP JUMP JUMPDEST PUSH1 0x0 DUP1 PUSH1 0x0 DUP1 PUSH15 0x3430B9B42FBA37AFB1BAB93B32B137 PUSH1 0x89 SHL PUSH1 0x0 DUP1 SHL DUP7 PUSH1 0x40 MLOAD PUSH1 0x20 ADD DUP1 DUP5 DUP2 MSTORE PUSH1 0x20 ADD DUP4 DUP2 MSTORE PUSH1 0x20 ADD DUP3 DUP1 MLOAD SWAP1 PUSH1 0x20 ADD SWAP1 DUP1 DUP4 DUP4 JUMPDEST PUSH1 0x20 DUP4 LT PUSH2 0x1415 JUMPI DUP1 MLOAD DUP3 MSTORE PUSH1 0x1F NOT SWAP1 SWAP3 ADD SWAP2 PUSH1 0x20 SWAP2 DUP3 ADD SWAP2 ADD PUSH2 0x13F6 JUMP JUMPDEST PUSH1 0x1 DUP4 PUSH1 0x20 SUB PUSH2 0x100 EXP SUB DUP1 NOT DUP3 MLOAD AND DUP2 DUP5 MLOAD AND DUP1 DUP3 OR DUP6 MSTORE POP POP POP POP POP POP SWAP1 POP ADD SWAP4 POP POP POP POP PUSH1 0x40 MLOAD PUSH1 0x20 DUP2 DUP4 SUB SUB DUP2 MSTORE SWAP1 PUSH1 0x40 MSTORE SWAP1 POP PUSH1 0x0 DUP2 PUSH1 0x40 MLOAD PUSH1 0x20 ADD DUP1 DUP4 PUSH1 0xFF AND PUSH1 0xF8 SHL DUP2 MSTORE PUSH1 0x1 ADD DUP3 DUP1 MLOAD SWAP1 PUSH1 0x20 ADD SWAP1 DUP1 DUP4 DUP4 JUMPDEST PUSH1 0x20 DUP4 LT PUSH2 0x148E JUMPI DUP1 MLOAD DUP3 MSTORE PUSH1 0x1F NOT SWAP1 SWAP3 ADD SWAP2 PUSH1 0x20 SWAP2 DUP3 ADD SWAP2 ADD PUSH2 0x146F JUMP JUMPDEST PUSH1 0x1 DUP4 PUSH1 0x20 SUB PUSH2 0x100 EXP SUB DUP1 NOT DUP3 MLOAD AND DUP2 DUP5 MLOAD AND DUP1 DUP3 OR DUP6 MSTORE POP POP POP POP POP POP SWAP1 POP ADD SWAP3 POP POP POP PUSH1 0x40 MLOAD PUSH1 0x20 DUP2 DUP4 SUB SUB DUP2 MSTORE SWAP1 PUSH1 0x40 MSTORE DUP1 MLOAD SWAP1 PUSH1 0x20 ADD KECCAK256 PUSH1 0x1 DUP3 PUSH1 0x40 MLOAD PUSH1 0x20 ADD DUP1 DUP4 PUSH1 0xFF AND PUSH1 0xF8 SHL DUP2 MSTORE PUSH1 0x1 ADD DUP3 DUP1 MLOAD SWAP1 PUSH1 0x20 ADD SWAP1 DUP1 DUP4 DUP4 JUMPDEST PUSH1 0x20 DUP4 LT PUSH2 0x150B JUMPI DUP1 MLOAD DUP3 MSTORE PUSH1 0x1F NOT SWAP1 SWAP3 ADD SWAP2 PUSH1 0x20 SWAP2 DUP3 ADD SWAP2 ADD PUSH2 0x14EC JUMP JUMPDEST MLOAD DUP2 MLOAD PUSH1 0x20 SWAP4 DUP5 SUB PUSH2 0x100 EXP PUSH1 0x0 NOT ADD DUP1 NOT SWAP1 SWAP3 AND SWAP2 AND OR SWAP1 MSTORE PUSH1 0x40 DUP1 MLOAD SWAP3 SWAP1 SWAP5 ADD DUP3 DUP2 SUB PUSH1 0x1F NOT ADD DUP4 MSTORE SWAP1 SWAP4 MSTORE DUP1 MLOAD SWAP3 ADD SWAP2 SWAP1 SWAP2 KECCAK256 SWAP5 SWAP8 POP SWAP4 SWAP6 POP PUSH17 0x14551231950B75FC4402DA1732FC9BEC0 SWAP4 POP PUSH17 0x14551231950B75FC4402DA1732FC9BEBF NOT SWAP3 POP PUSH1 0x0 SWAP2 POP DUP3 SWAP1 POP DUP4 DUP8 MULMOD SWAP1 POP DUP2 DUP1 PUSH2 0x1584 JUMPI INVALID JUMPDEST DUP6 DUP3 ADDMOD PUSH1 0x1 ADD SWAP7 POP POP POP POP POP POP POP JUMPDEST SWAP2 SWAP1 POP JUMP JUMPDEST PUSH2 0x15A0 PUSH2 0x180B JUMP JUMPDEST PUSH1 0x40 DUP3 ADD MLOAD DUP1 PUSH2 0x15B0 JUMPI POP PUSH2 0x1593 JUMP JUMPDEST DUP3 MLOAD PUSH5 0x1000003D0 NOT SWAP1 PUSH1 0x0 DUP3 PUSH1 0x20 DUP8 ADD MLOAD PUSH1 0x2 MULMOD SWAP1 POP PUSH1 0x0 DUP4 DUP1 PUSH2 0x15D1 JUMPI INVALID JUMPDEST DUP3 DUP4 MULMOD SWAP1 POP PUSH1 0x0 DUP5 DUP1 PUSH2 0x15E0 JUMPI INVALID JUMPDEST DUP5 DUP4 MULMOD SWAP1 POP PUSH1 0x0 DUP6 DUP1 PUSH2 0x15EF JUMPI INVALID JUMPDEST DUP7 DUP1 PUSH2 0x15F7 JUMPI INVALID JUMPDEST DUP7 DUP8 MULMOD PUSH1 0x3 MULMOD SWAP1 POP PUSH1 0x0 DUP7 DUP1 PUSH2 0x1609 JUMPI INVALID JUMPDEST DUP8 DUP1 PUSH2 0x1611 JUMPI INVALID JUMPDEST DUP5 PUSH5 0x1000003D2 NOT MULMOD DUP9 DUP1 PUSH2 0x1622 JUMPI INVALID JUMPDEST DUP5 DUP6 MULMOD ADDMOD DUP1 DUP11 MSTORE SWAP1 POP DUP7 DUP1 PUSH2 0x1633 JUMPI INVALID JUMPDEST DUP8 DUP1 PUSH2 0x163B JUMPI INVALID JUMPDEST DUP9 DUP1 PUSH2 0x1643 JUMPI INVALID JUMPDEST DUP7 DUP8 MULMOD PUSH4 0x800001E9 PUSH1 0x1 PUSH1 0xFF SHL SUB MULMOD DUP9 DUP1 PUSH2 0x165A JUMPI INVALID JUMPDEST DUP10 DUP1 PUSH2 0x1662 JUMPI INVALID JUMPDEST DUP5 DUP12 SUB DUP8 ADDMOD DUP6 MULMOD ADDMOD PUSH1 0x20 DUP11 ADD MSTORE DUP7 DUP1 PUSH2 0x1677 JUMPI INVALID JUMPDEST DUP9 DUP7 MULMOD PUSH1 0x40 DUP11 ADD MSTORE POP SWAP7 SWAP9 SWAP8 POP POP POP POP POP POP POP POP JUMP JUMPDEST PUSH1 0x0 PUSH1 0x20 PUSH1 0x1F DUP4 ADD DIV DUP5 PUSH1 0x20 DUP6 ADD PUSH1 0x0 JUMPDEST DUP4 DUP2 LT ISZERO PUSH2 0x16BA JUMPI PUSH1 0x20 DUP2 MUL DUP4 DUP2 ADD MLOAD SWAP1 DUP4 ADD MSTORE PUSH1 0x1 ADD PUSH2 0x169E JUMP JUMPDEST POP POP POP POP PUSH1 0x0 DUP4 MLOAD PUSH1 0x20 ADD DUP5 ADD MSTORE DUP2 DUP5 ADD SWAP1 POP SWAP4 SWAP3 POP POP POP JUMP JUMPDEST PUSH1 0x40 MLOAD DUP1 PUSH1 0x60 ADD PUSH1 0x40 MSTORE DUP1 PUSH2 0x16E7 PUSH2 0x187E JUMP JUMPDEST DUP2 MSTORE PUSH1 0x20 ADD PUSH2 0x16F4 PUSH2 0x187E JUMP JUMPDEST DUP2 MSTORE PUSH1 0x20 ADD PUSH1 0x0 DUP2 MSTORE POP SWAP1 JUMP JUMPDEST PUSH1 0x40 MLOAD DUP1 PUSH1 0xA0 ADD PUSH1 0x40 MSTORE DUP1 PUSH2 0x1714 PUSH2 0x187E JUMP JUMPDEST DUP2 MSTORE PUSH1 0x20 ADD PUSH2 0x1721 PUSH2 0x187E JUMP JUMPDEST DUP2 MSTORE PUSH1 0x0 PUSH1 0x20 DUP3 ADD MSTORE PUSH1 0x40 ADD PUSH2 0x1735 PUSH2 0x187E JUMP JUMPDEST DUP2 MSTORE PUSH1 0x20 ADD PUSH2 0x1742 PUSH2 0x1829 JUMP JUMPDEST SWAP1 MSTORE SWAP1 JUMP JUMPDEST PUSH1 0x40 MLOAD DUP1 PUSH2 0x2E0 ADD PUSH1 0x40 MSTORE DUP1 PUSH1 0x0 DUP2 MSTORE PUSH1 0x20 ADD PUSH1 0x0 DUP2 MSTORE PUSH1 0x20 ADD PUSH1 0x0 DUP2 MSTORE PUSH1 0x20 ADD PUSH1 0x0 DUP2 MSTORE PUSH1 0x20 ADD PUSH1 0x0 DUP2 MSTORE PUSH1 0x20 ADD PUSH1 0x0 DUP2 MSTORE PUSH1 0x20 ADD PUSH1 0x0 DUP2 MSTORE PUSH1 0x20 ADD PUSH1 0x0 DUP2 MSTORE PUSH1 0x20 ADD PUSH1 0x0 DUP2 MSTORE PUSH1 0x20 ADD PUSH1 0x0 DUP2 MSTORE PUSH1 0x20 ADD PUSH1 0x0 DUP2 MSTORE PUSH1 0x20 ADD PUSH1 0x0 DUP2 MSTORE PUSH1 0x20 ADD PUSH1 0x0 DUP2 MSTORE PUSH1 0x20 ADD PUSH1 0x0 DUP2 MSTORE PUSH1 0x20 ADD PUSH1 0x0 DUP2 MSTORE PUSH1 0x20 ADD PUSH1 0x0 DUP2 MSTORE PUSH1 0x20 ADD PUSH1 0x0 DUP2 MSTORE PUSH1 0x20 ADD PUSH1 0x0 DUP2 MSTORE PUSH1 0x20 ADD PUSH1 0x0 DUP2 MSTORE PUSH1 0x20 ADD PUSH1 0x0 DUP2 MSTORE PUSH1 0x20 ADD PUSH1 0x0 DUP1 NOT AND DUP2 MSTORE PUSH1 0x20 ADD PUSH1 0x0 PUSH1 0x1 PUSH1 0x1 PUSH1 0xA0 SHL SUB AND DUP2 MSTORE PUSH1 0x20 ADD PUSH1 0x0 PUSH1 0x1 PUSH1 0x1 PUSH1 0xD8 SHL SUB NOT AND DUP2 MSTORE POP SWAP1 JUMP JUMPDEST PUSH1 0x40 MLOAD DUP1 PUSH1 0x60 ADD PUSH1 0x40 MSTORE DUP1 PUSH1 0x3 SWAP1 PUSH1 0x20 DUP3 MUL DUP1 CALLDATASIZE DUP4 CALLDATACOPY POP SWAP2 SWAP3 SWAP2 POP POP JUMP JUMPDEST PUSH1 0x40 MLOAD DUP1 PUSH1 0xE0 ADD PUSH1 0x40 MSTORE DUP1 PUSH2 0x183C PUSH2 0x187E JUMP JUMPDEST DUP2 MSTORE PUSH1 0x20 ADD PUSH2 0x1849 PUSH2 0x187E JUMP JUMPDEST DUP2 MSTORE PUSH1 0x20 ADD PUSH2 0x1856 PUSH2 0x187E JUMP JUMPDEST DUP2 MSTORE PUSH1 0x20 ADD PUSH2 0x1863 PUSH2 0x187E JUMP JUMPDEST DUP2 MSTORE PUSH1 0x20 ADD PUSH1 0x0 DUP2 MSTORE PUSH1 0x20 ADD PUSH1 0x60 DUP2 MSTORE PUSH1 0x20 ADD PUSH1 0x60 DUP2 MSTORE POP SWAP1 JUMP JUMPDEST PUSH1 0x40 DUP1 MLOAD DUP1 DUP3 ADD SWAP1 SWAP2 MSTORE PUSH1 0x0 DUP1 DUP3 MSTORE PUSH1 0x20 DUP3 ADD MSTORE SWAP1 JUMP INVALID POP PUSH16 0x696E7420682A5531206973206E6F7420 PUSH2 0x2076 PUSH2 0x6C69 PUSH5 0x2045432070 PUSH16 0x696E74507265636F6D70757465642059 KECCAK256 PUSH4 0x6F6F7264 PUSH10 0x6E617465206F66205532 KECCAK256 PUSH5 0x6F65736E27 PUSH21 0x20636F72726573706F6E6420746F20636F6D707265 PUSH20 0x73656420553220706F696E74507265636F6D7075 PUSH21 0x6564205920636F6F7264696E617465206F66205531 KECCAK256 PUSH5 0x6F65736E27 PUSH21 0x20636F72726573706F6E6420746F20636F6D707265 PUSH20 0x73656420553120706F696E74507265636F6D7075 PUSH21 0x6564207A2A562076616C756520697320696E636F72 PUSH19 0x656374507265636F6D7075746564205920636F PUSH16 0x7264696E617465206F6620563220646F PUSH6 0x736E27742063 PUSH16 0x72726573706F6E6420746F20636F6D70 PUSH19 0x657373656420563220706F696E74507265636F PUSH14 0x7075746564207A2A552076616C75 PUSH6 0x20697320696E PUSH4 0x6F727265 PUSH4 0x74507265 PUSH4 0x6F6D7075 PUSH21 0x6564205920636F6F7264696E617465206F66204520 PUSH5 0x6F65736E27 PUSH21 0x20636F72726573706F6E6420746F20636F6D707265 PUSH20 0x736564204520706F696E74507265636F6D707574 PUSH6 0x64205920636F PUSH16 0x7264696E617465206F66205620646F65 PUSH20 0x6E277420636F72726573706F6E6420746F20636F PUSH14 0x70726573736564205620706F696E PUSH21 0x507265636F6D7075746564205920636F6F7264696E PUSH2 0x7465 KECCAK256 PUSH16 0x6620563120646F65736E277420636F72 PUSH19 0x6573706F6E6420746F20636F6D707265737365 PUSH5 0x2056312070 PUSH16 0x696E74506F696E7420682A4531206973 KECCAK256 PUSH15 0x6F7420612076616C69642045432070 PUSH16 0x696E74506F696E74207A2A5520697320 PUSH15 0x6F7420612076616C69642045432070 PUSH16 0x696E74506F696E7420682A5631206973 KECCAK256 PUSH15 0x6F7420612076616C69642045432070 PUSH16 0x696E74507265636F6D70757465642068 0x2A JUMP BALANCE KECCAK256 PUSH23 0x616C756520697320696E636F7272656374A26469706673 PC 0x22 SLT KECCAK256 PUSH23 0x193439EE0055E05DDF9BADE7C4E8FEF3253F3D86751105 SWAP3 EXP 0x21 DELEGATECALL 0xA7 NOT 0xC3 ORIGIN PUSH5 0x736F6C6343 STOP SMOD MOD STOP CALLER ",
  "sha1": "bb6fcde46582b935f41abcfb517ba8e0ae0319c9",
  "source": "// SPDX-License-Identifier: AGPL-3.0-or-later\n\npragma solidity ^0.7.0;\n\nimport \"./UmbralDeserializer.sol\";\nimport \"./SignatureVerifier.sol\";\n\n/**\n* @notice Validates re-encryption correctness.\n*/\nlibrary ReEncryptionValidator {\n\n    using UmbralDeserializer for bytes;\n\n\n    //------------------------------//\n    //   Umbral-specific constants  //\n    //------------------------------//\n\n    // See parameter `u` of `UmbralParameters` class in pyUmbral\n    // https://github.com/nucypher/pyUmbral/blob/master/umbral/params.py\n    uint8 public constant UMBRAL_PARAMETER_U_SIGN = 0x02;\n    uint256 public constant UMBRAL_PARAMETER_U_XCOORD = 0x03c98795773ff1c241fc0b1cced85e80f8366581dda5c9452175ebd41385fa1f;\n    uint256 public constant UMBRAL_PARAMETER_U_YCOORD = 0x7880ed56962d7c0ae44d6f14bb53b5fe64b31ea44a41d0316f3a598778f0f936;\n\n\n    //------------------------------//\n    // SECP256K1-specific constants //\n    //------------------------------//\n\n    // Base field order\n    uint256 constant FIELD_ORDER = 0xFFFFFFFFFFFFFFFFFFFFFFFFFFFFFFFFFFFFFFFFFFFFFFFFFFFFFFFEFFFFFC2F;\n\n    // -2 mod FIELD_ORDER\n    uint256 constant MINUS_2 = 0xfffffffffffffffffffffffffffffffffffffffffffffffffffffffefffffc2d;\n\n    // (-1/2) mod FIELD_ORDER\n    uint256 constant MINUS_ONE_HALF = 0x7fffffffffffffffffffffffffffffffffffffffffffffffffffffff7ffffe17;\n\n\n    //\n\n    /**\n    * @notice Check correctness of re-encryption\n    * @param _capsuleBytes Capsule\n    * @param _cFragBytes Capsule frag\n    * @param _precomputedBytes Additional precomputed data\n    */\n    function validateCFrag(\n        bytes memory _capsuleBytes,\n        bytes memory _cFragBytes,\n        bytes memory _precomputedBytes\n    )\n        public pure returns (bool)\n    {\n        UmbralDeserializer.Capsule memory _capsule = _capsuleBytes.toCapsule();\n        UmbralDeserializer.CapsuleFrag memory _cFrag = _cFragBytes.toCapsuleFrag();\n        UmbralDeserializer.PreComputedData memory _precomputed = _precomputedBytes.toPreComputedData();\n\n        // Extract Alice's address and check that it corresponds to the one provided\n        // address alicesAddress = SignatureVerifier.recover(\n        //     _precomputed.hashedKFragValidityMessage,\n        //     abi.encodePacked(_cFrag.proof.kFragSignature, _precomputed.lostBytes[0])\n        // );\n        // require(alicesAddress == _precomputed.alicesKeyAsAddress, \"Bad KFrag signature\");\n\n        // Compute proof's challenge scalar h, used in all ZKP verification equations\n        uint256 h = computeProofChallengeScalar(_capsule, _cFrag);\n\n        //////\n        // Verifying 1st equation: z*E == h*E_1 + E_2\n        //////\n\n        // Input validation: E\n        require(checkCompressedPoint(\n            _capsule.pointE.sign,\n            _capsule.pointE.xCoord,\n            _precomputed.pointEyCoord),\n            \"Precomputed Y coordinate of E doesn't correspond to compressed E point\"\n        );\n\n        // Input validation: z*E\n        require(isOnCurve(_precomputed.pointEZxCoord, _precomputed.pointEZyCoord),\n                \"Point zE is not a valid EC point\"\n        );\n        // require(ecmulVerify(\n        //     _capsule.pointE.xCoord,         // E_x\n        //     _precomputed.pointEyCoord,      // E_y\n        //     _cFrag.proof.bnSig,             // z\n        //     _precomputed.pointEZxCoord,     // zE_x\n        //     _precomputed.pointEZyCoord),    // zE_y\n        //     \"Precomputed z*E value is incorrect\"\n        // );\n\n        // Input validation: E1\n        // require(checkCompressedPoint(\n        //     _cFrag.pointE1.sign,          // E1_sign\n        //     _cFrag.pointE1.xCoord,        // E1_x\n        //     _precomputed.pointE1yCoord),  // E1_y\n        //     \"Precomputed Y coordinate of E1 doesn't correspond to compressed E1 point\"\n        // );\n\n        // Input validation: h*E1\n        require(isOnCurve(_precomputed.pointE1HxCoord, _precomputed.pointE1HyCoord),\n                \"Point h*E1 is not a valid EC point\"\n        );\n        // require(ecmulVerify(\n        //     _cFrag.pointE1.xCoord,          // E1_x\n        //     _precomputed.pointE1yCoord,     // E1_y\n        //     h,\n        //     _precomputed.pointE1HxCoord,    // hE1_x\n        //     _precomputed.pointE1HyCoord),   // hE1_y\n        //     \"Precomputed h*E1 value is incorrect\"\n        // );\n\n        // Input validation: E2\n        // require(checkCompressedPoint(\n        //     _cFrag.proof.pointE2.sign,        // E2_sign\n        //     _cFrag.proof.pointE2.xCoord,      // E2_x\n        //     _precomputed.pointE2yCoord),      // E2_y\n        //     \"Precomputed Y coordinate of E2 doesn't correspond to compressed E2 point\"\n        // );\n\n        bool equation_holds = eqAffineJacobian(\n            [_precomputed.pointEZxCoord,  _precomputed.pointEZyCoord],\n            addAffineJacobian(\n                [_cFrag.proof.pointE2.xCoord, _precomputed.pointE2yCoord],\n                [_precomputed.pointE1HxCoord, _precomputed.pointE1HyCoord]\n            )\n        );\n\n        if (!equation_holds){\n            return false;\n        }\n\n        //////\n        // Verifying 2nd equation: z*V == h*V_1 + V_2\n        //////\n\n        // Input validation: V\n        require(checkCompressedPoint(\n            _capsule.pointV.sign,\n            _capsule.pointV.xCoord,\n            _precomputed.pointVyCoord),\n            \"Precomputed Y coordinate of V doesn't correspond to compressed V point\"\n        );\n\n        // Input validation: z*V\n        require(isOnCurve(_precomputed.pointVZxCoord, _precomputed.pointVZyCoord),\n                \"Point zV is not a valid EC point\"\n        );\n        require(ecmulVerify(\n            _capsule.pointV.xCoord,         // V_x\n            _precomputed.pointVyCoord,      // V_y\n            _cFrag.proof.bnSig,             // z\n            _precomputed.pointVZxCoord,     // zV_x\n            _precomputed.pointVZyCoord),    // zV_y\n            \"Precomputed z*V value is incorrect\"\n        );\n\n        // Input validation: V1\n        require(checkCompressedPoint(\n            _cFrag.pointV1.sign,         // V1_sign\n            _cFrag.pointV1.xCoord,       // V1_x\n            _precomputed.pointV1yCoord), // V1_y\n            \"Precomputed Y coordinate of V1 doesn't correspond to compressed V1 point\"\n        );\n\n        // Input validation: h*V1\n        require(isOnCurve(_precomputed.pointV1HxCoord, _precomputed.pointV1HyCoord),\n            \"Point h*V1 is not a valid EC point\"\n        );\n        require(ecmulVerify(\n            _cFrag.pointV1.xCoord,          // V1_x\n            _precomputed.pointV1yCoord,     // V1_y\n            h,\n            _precomputed.pointV1HxCoord,    // h*V1_x\n            _precomputed.pointV1HyCoord),   // h*V1_y\n            \"Precomputed h*V1 value is incorrect\"\n        );\n\n        // Input validation: V2\n        require(checkCompressedPoint(\n            _cFrag.proof.pointV2.sign,        // V2_sign\n            _cFrag.proof.pointV2.xCoord,      // V2_x\n            _precomputed.pointV2yCoord),      // V2_y\n            \"Precomputed Y coordinate of V2 doesn't correspond to compressed V2 point\"\n        );\n\n        equation_holds = eqAffineJacobian(\n            [_precomputed.pointVZxCoord,  _precomputed.pointVZyCoord],\n            addAffineJacobian(\n                [_cFrag.proof.pointV2.xCoord, _precomputed.pointV2yCoord],\n                [_precomputed.pointV1HxCoord, _precomputed.pointV1HyCoord]\n            )\n        );\n\n        if (!equation_holds){\n            return false;\n        }\n\n        //////\n        // Verifying 3rd equation: z*U == h*U_1 + U_2\n        //////\n\n        // We don't have to validate U since it's fixed and hard-coded\n\n        // Input validation: z*U\n        require(isOnCurve(_precomputed.pointUZxCoord, _precomputed.pointUZyCoord),\n                \"Point z*U is not a valid EC point\"\n        );\n        require(ecmulVerify(\n            UMBRAL_PARAMETER_U_XCOORD,      // U_x\n            UMBRAL_PARAMETER_U_YCOORD,      // U_y\n            _cFrag.proof.bnSig,             // z\n            _precomputed.pointUZxCoord,     // zU_x\n            _precomputed.pointUZyCoord),    // zU_y\n            \"Precomputed z*U value is incorrect\"\n        );\n\n        // Input validation: U1  (a.k.a. KFragCommitment)\n        require(checkCompressedPoint(\n            _cFrag.proof.pointKFragCommitment.sign,     // U1_sign\n            _cFrag.proof.pointKFragCommitment.xCoord,   // U1_x\n            _precomputed.pointU1yCoord),                // U1_y\n            \"Precomputed Y coordinate of U1 doesn't correspond to compressed U1 point\"\n        );\n\n        // Input validation: h*U1\n        require(isOnCurve(_precomputed.pointU1HxCoord, _precomputed.pointU1HyCoord),\n                \"Point h*U1 is not a valid EC point\"\n        );\n        require(ecmulVerify(\n            _cFrag.proof.pointKFragCommitment.xCoord,   // U1_x\n            _precomputed.pointU1yCoord,                 // U1_y\n            h,\n            _precomputed.pointU1HxCoord,    // h*V1_x\n            _precomputed.pointU1HyCoord),   // h*V1_y\n            \"Precomputed h*V1 value is incorrect\"\n        );\n\n        // Input validation: U2  (a.k.a. KFragPok (\"proof of knowledge\"))\n        require(checkCompressedPoint(\n            _cFrag.proof.pointKFragPok.sign,    // U2_sign\n            _cFrag.proof.pointKFragPok.xCoord,  // U2_x\n            _precomputed.pointU2yCoord),        // U2_y\n            \"Precomputed Y coordinate of U2 doesn't correspond to compressed U2 point\"\n        );\n\n        equation_holds = eqAffineJacobian(\n            [_precomputed.pointUZxCoord,  _precomputed.pointUZyCoord],\n            addAffineJacobian(\n                [_cFrag.proof.pointKFragPok.xCoord, _precomputed.pointU2yCoord],\n                [_precomputed.pointU1HxCoord, _precomputed.pointU1HyCoord]\n            )\n        );\n\n        return equation_holds;\n    }\n\n    function computeProofChallengeScalar(\n        UmbralDeserializer.Capsule memory _capsule,\n        UmbralDeserializer.CapsuleFrag memory _cFrag\n    ) internal pure returns (uint256) {\n\n        // Compute h = hash_to_bignum(e, e1, e2, v, v1, v2, u, u1, u2, metadata)\n        bytes memory hashInput = abi.encodePacked(\n            // Point E\n            _capsule.pointE.sign,\n            _capsule.pointE.xCoord,\n            // Point E1\n            _cFrag.pointE1.sign,\n            _cFrag.pointE1.xCoord,\n            // Point E2\n            _cFrag.proof.pointE2.sign,\n            _cFrag.proof.pointE2.xCoord\n        );\n\n        hashInput = abi.encodePacked(\n            hashInput,\n            // Point V\n            _capsule.pointV.sign,\n            _capsule.pointV.xCoord,\n            // Point V1\n            _cFrag.pointV1.sign,\n            _cFrag.pointV1.xCoord,\n            // Point V2\n            _cFrag.proof.pointV2.sign,\n            _cFrag.proof.pointV2.xCoord\n        );\n\n        hashInput = abi.encodePacked(\n            hashInput,\n            // Point U\n            bytes1(UMBRAL_PARAMETER_U_SIGN),\n            bytes32(UMBRAL_PARAMETER_U_XCOORD),\n            // Point U1\n            _cFrag.proof.pointKFragCommitment.sign,\n            _cFrag.proof.pointKFragCommitment.xCoord,\n            // Point U2\n            _cFrag.proof.pointKFragPok.sign,\n            _cFrag.proof.pointKFragPok.xCoord,\n            // Re-encryption metadata\n            _cFrag.proof.metadata\n        );\n\n        uint256 h = extendedKeccakToBN(hashInput);\n        return h;\n\n    }\n\n    function extendedKeccakToBN (bytes memory _data) internal pure returns (uint256) {\n\n        bytes32 upper;\n        bytes32 lower;\n\n        // Umbral prepends to the data a customization string of 64-bytes.\n        // In the case of hash_to_curvebn is 'hash_to_curvebn', padded with zeroes.\n        bytes memory input = abi.encodePacked(bytes32(\"hash_to_curvebn\"), bytes32(0x00), _data);\n\n        (upper, lower) = (keccak256(abi.encodePacked(uint8(0x00), input)),\n                          keccak256(abi.encodePacked(uint8(0x01), input)));\n\n        // Let n be the order of secp256k1's group (n = 2^256 - 0x1000003D1)\n        // n_minus_1 = n - 1\n        // delta = 2^256 mod n_minus_1\n        uint256 delta = 0x14551231950b75fc4402da1732fc9bec0;\n        uint256 n_minus_1 = 0xfffffffffffffffffffffffffffffffebaaedce6af48a03bbfd25e8cd0364140;\n\n        uint256 upper_half = mulmod(uint256(upper), delta, n_minus_1);\n        return 1 + addmod(upper_half, uint256(lower), n_minus_1);\n    }\n\n    /// @notice Tests if a compressed point is valid, wrt to its corresponding Y coordinate\n    /// @param _pointSign The sign byte from the compressed notation: 0x02 if the Y coord is even; 0x03 otherwise\n    /// @param _pointX The X coordinate of an EC point in affine representation\n    /// @param _pointY The Y coordinate of an EC point in affine representation\n    /// @return true iff _pointSign and _pointX are the compressed representation of (_pointX, _pointY)\n\tfunction checkCompressedPoint(\n\t\tuint8 _pointSign,\n\t\tuint256 _pointX,\n\t\tuint256 _pointY\n\t) internal pure returns(bool) {\n\t\tbool correct_sign = _pointY % 2 == _pointSign - 2;\n\t\treturn correct_sign && isOnCurve(_pointX, _pointY);\n\t}\n\n    /// @notice Tests if the given serialized coordinates represent a valid EC point\n    /// @param _coords The concatenation of serialized X and Y coordinates\n    /// @return true iff coordinates X and Y are a valid point\n    function checkSerializedCoordinates(bytes memory _coords) internal pure returns(bool) {\n        require(_coords.length == 64, \"Serialized coordinates should be 64 B\");\n        uint256 coordX;\n        uint256 coordY;\n        assembly {\n            coordX := mload(add(_coords, 32))\n            coordY := mload(add(_coords, 64))\n        }\n\t\treturn isOnCurve(coordX, coordY);\n\t}\n\n    /// @notice Tests if a point is on the secp256k1 curve\n    /// @param Px The X coordinate of an EC point in affine representation\n    /// @param Py The Y coordinate of an EC point in affine representation\n    /// @return true if (Px, Py) is a valid secp256k1 point; false otherwise\n    function isOnCurve(uint256 Px, uint256 Py) internal pure returns (bool) {\n        uint256 p = FIELD_ORDER;\n\n        if (Px >= p || Py >= p){\n            return false;\n        }\n\n        uint256 y2 = mulmod(Py, Py, p);\n        uint256 x3_plus_7 = addmod(mulmod(mulmod(Px, Px, p), Px, p), 7, p);\n        return y2 == x3_plus_7;\n    }\n\n    // https://ethresear.ch/t/you-can-kinda-abuse-ecrecover-to-do-ecmul-in-secp256k1-today/2384/4\n    function ecmulVerify(\n    \tuint256 x1,\n    \tuint256 y1,\n    \tuint256 scalar,\n    \tuint256 qx,\n    \tuint256 qy\n    ) internal pure returns(bool) {\n\t    uint256 curve_order = 0xFFFFFFFFFFFFFFFFFFFFFFFFFFFFFFFEBAAEDCE6AF48A03BBFD25E8CD0364141;\n\t    address signer = ecrecover(0, uint8(27 + (y1 % 2)), bytes32(x1), bytes32(mulmod(scalar, x1, curve_order)));\n\t    address xyAddress = address(uint256(keccak256(abi.encodePacked(qx, qy))) & 0x00FFFFFFFFFFFFFFFFFFFFFFFFFFFFFFFFFFFFFFFF);\n\t    return xyAddress == signer;\n\t}\n\n    /// @notice Equality test of two points, in affine and Jacobian coordinates respectively\n    /// @param P An EC point in affine coordinates\n    /// @param Q An EC point in Jacobian coordinates\n    /// @return true if P and Q represent the same point in affine coordinates; false otherwise\n    function eqAffineJacobian(\n    \tuint256[2] memory P,\n    \tuint256[3] memory Q\n    ) internal pure returns(bool){\n        uint256 Qz = Q[2];\n        if(Qz == 0){\n            return false;       // Q is zero but P isn't.\n        }\n\n        uint256 p = FIELD_ORDER;\n        uint256 Q_z_squared = mulmod(Qz, Qz, p);\n        return mulmod(P[0], Q_z_squared, p) == Q[0] && mulmod(P[1], mulmod(Q_z_squared, Qz, p), p) == Q[1];\n\n    }\n\n    /// @notice Adds two points in affine coordinates, with the result in Jacobian\n    /// @dev Based on the addition formulas from http://www.hyperelliptic.org/EFD/g1p/auto-code/shortw/jacobian-0/addition/add-2001-b.op3\n    /// @param P An EC point in affine coordinates\n    /// @param Q An EC point in affine coordinates\n    /// @return R An EC point in Jacobian coordinates with the sum, represented by an array of 3 uint256\n    function addAffineJacobian(\n    \tuint[2] memory P,\n    \tuint[2] memory Q\n    ) internal pure returns (uint[3] memory R) {\n\n        uint256 p = FIELD_ORDER;\n        uint256 a   = P[0];\n        uint256 c   = P[1];\n        uint256 t0  = Q[0];\n        uint256 t1  = Q[1];\n\n        if ((a == t0) && (c == t1)){\n            return doubleJacobian([a, c, 1]);\n        }\n        uint256 d = addmod(t1, p-c, p); // d = t1 - c\n        uint256 b = addmod(t0, p-a, p); // b = t0 - a\n        uint256 e = mulmod(b, b, p); // e = b^2\n        uint256 f = mulmod(e, b, p);  // f = b^3\n        uint256 g = mulmod(a, e, p);\n        R[0] = addmod(mulmod(d, d, p), p-addmod(mulmod(2, g, p), f, p), p);\n        R[1] = addmod(mulmod(d, addmod(g, p-R[0], p), p), p-mulmod(c, f, p), p);\n        R[2] = b;\n    }\n\n    /// @notice Point doubling in Jacobian coordinates\n    /// @param P An EC point in Jacobian coordinates.\n    /// @return Q An EC point in Jacobian coordinates\n    function doubleJacobian(uint[3] memory P) internal pure returns (uint[3] memory Q) {\n        uint256 z = P[2];\n        if (z == 0)\n            return Q;\n        uint256 p = FIELD_ORDER;\n        uint256 x = P[0];\n        uint256 _2y = mulmod(2, P[1], p);\n        uint256 _4yy = mulmod(_2y, _2y, p);\n        uint256 s = mulmod(_4yy, x, p);\n        uint256 m = mulmod(3, mulmod(x, x, p), p);\n        uint256 t = addmod(mulmod(m, m, p), mulmod(MINUS_2, s, p),p);\n        Q[0] = t;\n        Q[1] = addmod(mulmod(m, addmod(s, p - t, p), p), mulmod(MINUS_ONE_HALF, mulmod(_4yy, _4yy, p), p), p);\n        Q[2] = mulmod(_2y, z, p);\n    }\n}\n",
  "sourcePath": "contracts/ReEncryptionValidator.sol",
  "type": "library"
}